{
  "contractName": "Exchange",
  "abi": [
    {
      "inputs": [],
      "stateMutability": "nonpayable",
      "type": "constructor"
    },
    {
      "inputs": [],
      "name": "owner",
      "outputs": [
        {
          "internalType": "address",
          "name": "",
          "type": "address"
        }
      ],
      "stateMutability": "view",
      "type": "function",
      "constant": true
    },
    {
      "stateMutability": "payable",
      "type": "receive",
      "payable": true
    },
    {
      "inputs": [],
      "name": "checkEthBalance",
      "outputs": [
        {
          "internalType": "uint256",
          "name": "",
          "type": "uint256"
        }
      ],
      "stateMutability": "view",
      "type": "function",
      "constant": true
    },
    {
      "inputs": [],
      "name": "getListOfSupportedTokens",
      "outputs": [
        {
          "internalType": "address[]",
          "name": "",
          "type": "address[]"
        }
      ],
      "stateMutability": "view",
      "type": "function",
      "constant": true
    },
    {
      "inputs": [
        {
          "internalType": "address",
          "name": "srcToken",
          "type": "address"
        },
        {
          "internalType": "address",
          "name": "destToken",
          "type": "address"
        },
        {
          "internalType": "uint256",
          "name": "srcAmount",
          "type": "uint256"
        }
      ],
      "name": "getExchangeRate",
      "outputs": [
        {
          "internalType": "uint256",
          "name": "",
          "type": "uint256"
        }
      ],
      "stateMutability": "view",
      "type": "function",
      "constant": true
    },
    {
      "inputs": [
        {
          "internalType": "address",
          "name": "srcToken",
          "type": "address"
        },
        {
          "internalType": "address",
          "name": "destToken",
          "type": "address"
        },
        {
          "internalType": "uint256",
          "name": "srcAmount",
          "type": "uint256"
        }
      ],
      "name": "exchange",
      "outputs": [
        {
          "internalType": "uint256",
          "name": "",
          "type": "uint256"
        }
      ],
      "stateMutability": "payable",
      "type": "function",
      "payable": true
    },
    {
      "inputs": [],
      "name": "deposit",
      "outputs": [],
      "stateMutability": "payable",
      "type": "function",
      "payable": true
    },
    {
      "inputs": [
        {
          "internalType": "address",
          "name": "srcToken",
          "type": "address"
        }
      ],
      "name": "getAllowance",
      "outputs": [
        {
          "internalType": "uint256",
          "name": "",
          "type": "uint256"
        }
      ],
      "stateMutability": "view",
      "type": "function",
      "constant": true
    },
    {
      "inputs": [
        {
          "internalType": "address",
          "name": "srcToken",
          "type": "address"
        },
        {
          "internalType": "uint256",
          "name": "srcAmount",
          "type": "uint256"
        }
      ],
      "name": "buyToken",
      "outputs": [
        {
          "internalType": "bool",
          "name": "",
          "type": "bool"
        }
      ],
      "stateMutability": "payable",
      "type": "function",
      "payable": true
    },
    {
      "inputs": [
        {
          "internalType": "address",
          "name": "srcToken",
          "type": "address"
        },
        {
          "internalType": "uint256",
          "name": "srcAmount",
          "type": "uint256"
        }
      ],
      "name": "sellToken",
      "outputs": [
        {
          "internalType": "bool",
          "name": "",
          "type": "bool"
        }
      ],
      "stateMutability": "payable",
      "type": "function",
      "payable": true
    },
    {
      "inputs": [
        {
          "internalType": "address",
          "name": "token",
          "type": "address"
        },
        {
          "internalType": "address",
          "name": "from",
          "type": "address"
        },
        {
          "internalType": "address",
          "name": "to",
          "type": "address"
        },
        {
          "internalType": "uint256",
          "name": "srcAmount",
          "type": "uint256"
        }
      ],
      "name": "transferToken",
      "outputs": [
        {
          "internalType": "bool",
          "name": "",
          "type": "bool"
        }
      ],
      "stateMutability": "nonpayable",
      "type": "function"
    },
    {
      "inputs": [
        {
          "internalType": "address payable",
          "name": "_to",
          "type": "address"
        },
        {
          "internalType": "uint256",
          "name": "_amount",
          "type": "uint256"
        }
      ],
      "name": "transfer",
      "outputs": [],
      "stateMutability": "nonpayable",
      "type": "function"
    },
    {
      "inputs": [
        {
          "internalType": "contract Reserve",
          "name": "newReserve",
          "type": "address"
        }
      ],
      "name": "addReserve",
      "outputs": [],
      "stateMutability": "nonpayable",
      "type": "function"
    },
    {
      "inputs": [
        {
          "internalType": "address",
          "name": "tokenAddress",
          "type": "address"
        }
      ],
      "name": "removeReserve",
      "outputs": [],
      "stateMutability": "nonpayable",
      "type": "function"
    }
  ],
  "bytecode": "0x608060405234801561001057600080fd5b5033600460006101000a81548173ffffffffffffffffffffffffffffffffffffffff021916908373ffffffffffffffffffffffffffffffffffffffff160217905550613a85806100616000396000f3fe6080604052600436106100c65760003560e01c8063a9059cbb1161007f578063eb5a662e11610059578063eb5a662e1461025e578063ec1ca0711461029b578063f464e7db146102c6578063f5deae93146102f6576100cd565b8063a9059cbb14610200578063d0e30db014610229578063ea4e6ded14610233576100cd565b80632c54de4f146100d257806368f8fc101461010f5780636b441d8a1461013f57806380436fe01461017c5780638da5cb5b146101a5578063969e3756146101d0576100cd565b366100cd57005b600080fd5b3480156100de57600080fd5b506100f960048036038101906100f49190612739565b61031f565b60405161010691906127bb565b60405180910390f35b610129600480360381019061012491906127d6565b610549565b60405161013691906127bb565b60405180910390f35b34801561014b57600080fd5b5061016660048036038101906101619190612816565b610978565b6040516101739190612878565b60405180910390f35b34801561018857600080fd5b506101a3600480360381019061019e9190612893565b610d43565b005b3480156101b157600080fd5b506101ba610ead565b6040516101c791906128cf565b60405180910390f35b6101ea60048036038101906101e59190612816565b610ed3565b6040516101f79190612878565b60405180910390f35b34801561020c57600080fd5b5061022760048036038101906102229190612928565b61167d565b005b61023161172e565b005b34801561023f57600080fd5b50610248611730565b6040516102559190612a26565b60405180910390f35b34801561026a57600080fd5b5061028560048036038101906102809190612893565b6117be565b6040516102929190612878565b60405180910390f35b3480156102a757600080fd5b506102b0611914565b6040516102bd9190612878565b60405180910390f35b6102e060048036038101906102db91906127d6565b611933565b6040516102ed91906127bb565b60405180910390f35b34801561030257600080fd5b5061031d60048036038101906103189190612a86565b611c76565b005b60008073ffffffffffffffffffffffffffffffffffffffff166000808773ffffffffffffffffffffffffffffffffffffffff1673ffffffffffffffffffffffffffffffffffffffff16815260200190815260200160002060009054906101000a900473ffffffffffffffffffffffffffffffffffffffff1673ffffffffffffffffffffffffffffffffffffffff16036103ed576040517f08c379a00000000000000000000000000000000000000000000000000000000081526004016103e490612b36565b60405180910390fd5b60008060008773ffffffffffffffffffffffffffffffffffffffff1673ffffffffffffffffffffffffffffffffffffffff16815260200190815260200160002060009054906101000a900473ffffffffffffffffffffffffffffffffffffffff1690508073ffffffffffffffffffffffffffffffffffffffff166321df0da76040518163ffffffff1660e01b8152600401602060405180830381865afa15801561049b573d6000803e3d6000fd5b505050506040513d601f19601f820116820180604052508101906104bf9190612b94565b73ffffffffffffffffffffffffffffffffffffffff1663579952fc8686866040518463ffffffff1660e01b81526004016104fb93929190612bc1565b6020604051808303816000875af115801561051a573d6000803e3d6000fd5b505050506040513d601f19601f8201168201806040525081019061053e9190612c24565b915050949350505050565b60008073ffffffffffffffffffffffffffffffffffffffff166000808573ffffffffffffffffffffffffffffffffffffffff1673ffffffffffffffffffffffffffffffffffffffff16815260200190815260200160002060009054906101000a900473ffffffffffffffffffffffffffffffffffffffff1673ffffffffffffffffffffffffffffffffffffffff1603610617576040517f08c379a000000000000000000000000000000000000000000000000000000000815260040161060e90612cc3565b60405180910390fd5b60008060008573ffffffffffffffffffffffffffffffffffffffff1673ffffffffffffffffffffffffffffffffffffffff16815260200190815260200160002060009054906101000a900473ffffffffffffffffffffffffffffffffffffffff16905060008173ffffffffffffffffffffffffffffffffffffffff166377ed0ad66001806040518363ffffffff1660e01b81526004016106b8929190612d28565b602060405180830381865afa1580156106d5573d6000803e3d6000fd5b505050506040513d601f19601f820116820180604052508101906106f99190612d66565b670de0b6b3a764000061070c9190612df1565b905060008273ffffffffffffffffffffffffffffffffffffffff166377ed0ad66001846040518363ffffffff1660e01b815260040161074c929190612e22565b602060405180830381865afa158015610769573d6000803e3d6000fd5b505050506040513d601f19601f8201168201806040525081019061078d9190612d66565b9050803410156107d2576040517f08c379a00000000000000000000000000000000000000000000000000000000081526004016107c990612ee3565b60405180910390fd5b803411156107fc57600081346107e89190612f03565b905060003390506107f9818361167d565b50505b8273ffffffffffffffffffffffffffffffffffffffff1663874fc5f8826001856040518463ffffffff1660e01b8152600401610839929190612e22565b60206040518083038185885af1158015610857573d6000803e3d6000fd5b50505050506040513d601f19601f8201168201806040525081019061087c9190612c24565b1561096f578273ffffffffffffffffffffffffffffffffffffffff166321df0da76040518163ffffffff1660e01b8152600401602060405180830381865afa1580156108cc573d6000803e3d6000fd5b505050506040513d601f19601f820116820180604052508101906108f09190612b94565b73ffffffffffffffffffffffffffffffffffffffff1663a9059cbb32846040518363ffffffff1660e01b815260040161092a929190612f37565b6020604051808303816000875af1158015610949573d6000803e3d6000fd5b505050506040513d601f19601f8201168201806040525081019061096d9190612c24565b505b50505092915050565b60008073ffffffffffffffffffffffffffffffffffffffff166000808673ffffffffffffffffffffffffffffffffffffffff1673ffffffffffffffffffffffffffffffffffffffff16815260200190815260200160002060009054906101000a900473ffffffffffffffffffffffffffffffffffffffff1673ffffffffffffffffffffffffffffffffffffffff1603610a46576040517f08c379a0000000000000000000000000000000000000000000000000000000008152600401610a3d90612fd2565b60405180910390fd5b600073ffffffffffffffffffffffffffffffffffffffff166000808573ffffffffffffffffffffffffffffffffffffffff1673ffffffffffffffffffffffffffffffffffffffff16815260200190815260200160002060009054906101000a900473ffffffffffffffffffffffffffffffffffffffff1673ffffffffffffffffffffffffffffffffffffffff1603610b13576040517f08c379a0000000000000000000000000000000000000000000000000000000008152600401610b0a90613064565b60405180910390fd5b60008211610b56576040517f08c379a0000000000000000000000000000000000000000000000000000000008152600401610b4d9061311c565b60405180910390fd5b6000633b9aca006000808673ffffffffffffffffffffffffffffffffffffffff1673ffffffffffffffffffffffffffffffffffffffff16815260200190815260200160002060009054906101000a900473ffffffffffffffffffffffffffffffffffffffff1673ffffffffffffffffffffffffffffffffffffffff166377ed0ad66001806040518363ffffffff1660e01b8152600401610bf7929190612d28565b602060405180830381865afa158015610c14573d6000803e3d6000fd5b505050506040513d601f19601f82011682018060405250810190610c389190612d66565b633b9aca006000808973ffffffffffffffffffffffffffffffffffffffff1673ffffffffffffffffffffffffffffffffffffffff16815260200190815260200160002060009054906101000a900473ffffffffffffffffffffffffffffffffffffffff1673ffffffffffffffffffffffffffffffffffffffff166377ed0ad66000886040518363ffffffff1660e01b8152600401610cd7929190612e22565b602060405180830381865afa158015610cf4573d6000803e3d6000fd5b505050506040513d601f19601f82011682018060405250810190610d189190612d66565b610d22919061313c565b610d2c9190612df1565b610d36919061313c565b9050809150509392505050565b600460009054906101000a900473ffffffffffffffffffffffffffffffffffffffff1673ffffffffffffffffffffffffffffffffffffffff163373ffffffffffffffffffffffffffffffffffffffff1614610d9d57600080fd5b60005b6001805490508160ff161015610e485760018160ff1681548110610dc757610dc661317e565b5b9060005260206000200160009054906101000a900473ffffffffffffffffffffffffffffffffffffffff1673ffffffffffffffffffffffffffffffffffffffff168273ffffffffffffffffffffffffffffffffffffffff1603610e3557610e308160ff16612216565b610e48565b8080610e40906131ba565b915050610da0565b506000808273ffffffffffffffffffffffffffffffffffffffff1673ffffffffffffffffffffffffffffffffffffffff16815260200190815260200160002060006101000a81549073ffffffffffffffffffffffffffffffffffffffff021916905550565b600460009054906101000a900473ffffffffffffffffffffffffffffffffffffffff1681565b60008073ffffffffffffffffffffffffffffffffffffffff166000808673ffffffffffffffffffffffffffffffffffffffff1673ffffffffffffffffffffffffffffffffffffffff16815260200190815260200160002060009054906101000a900473ffffffffffffffffffffffffffffffffffffffff1673ffffffffffffffffffffffffffffffffffffffff1603610fa1576040517f08c379a0000000000000000000000000000000000000000000000000000000008152600401610f9890612fd2565b60405180910390fd5b600073ffffffffffffffffffffffffffffffffffffffff166000808573ffffffffffffffffffffffffffffffffffffffff1673ffffffffffffffffffffffffffffffffffffffff16815260200190815260200160002060009054906101000a900473ffffffffffffffffffffffffffffffffffffffff1673ffffffffffffffffffffffffffffffffffffffff160361106e576040517f08c379a000000000000000000000000000000000000000000000000000000000815260040161106590613064565b60405180910390fd5b600082116110b1576040517f08c379a00000000000000000000000000000000000000000000000000000000081526004016110a89061311c565b60405180910390fd5b60008060008673ffffffffffffffffffffffffffffffffffffffff1673ffffffffffffffffffffffffffffffffffffffff16815260200190815260200160002060009054906101000a900473ffffffffffffffffffffffffffffffffffffffff16905060008060008673ffffffffffffffffffffffffffffffffffffffff1673ffffffffffffffffffffffffffffffffffffffff16815260200190815260200160002060009054906101000a900473ffffffffffffffffffffffffffffffffffffffff1690506000670de0b6b3a764000061118d888888610978565b6111979190612df1565b905060008273ffffffffffffffffffffffffffffffffffffffff166377ed0ad66001846040518363ffffffff1660e01b81526004016111d7929190612e22565b602060405180830381865afa1580156111f4573d6000803e3d6000fd5b505050506040513d601f19601f820116820180604052508101906112189190612d66565b9050818373ffffffffffffffffffffffffffffffffffffffff16639b96eece856040518263ffffffff1660e01b815260040161125491906128cf565b602060405180830381865afa158015611271573d6000803e3d6000fd5b505050506040513d601f19601f820116820180604052508101906112959190612d66565b10156112d6576040517f08c379a00000000000000000000000000000000000000000000000000000000081526004016112cd9061327b565b60405180910390fd5b8373ffffffffffffffffffffffffffffffffffffffff166321df0da76040518163ffffffff1660e01b8152600401602060405180830381865afa158015611321573d6000803e3d6000fd5b505050506040513d601f19601f820116820180604052508101906113459190612b94565b73ffffffffffffffffffffffffffffffffffffffff1663579952fc3230896040518463ffffffff1660e01b815260040161138193929190612bc1565b6020604051808303816000875af11580156113a0573d6000803e3d6000fd5b505050506040513d601f19601f820116820180604052508101906113c49190612c24565b50858473ffffffffffffffffffffffffffffffffffffffff16639b96eece306040518263ffffffff1660e01b81526004016113ff91906128cf565b602060405180830381865afa15801561141c573d6000803e3d6000fd5b505050506040513d601f19601f820116820180604052508101906114409190612d66565b1015611481576040517f08c379a00000000000000000000000000000000000000000000000000000000081526004016114789061330d565b60405180910390fd5b8373ffffffffffffffffffffffffffffffffffffffff1663874fc5f86000886040518363ffffffff1660e01b81526004016114bd929190612e22565b6020604051808303816000875af11580156114dc573d6000803e3d6000fd5b505050506040513d601f19601f820116820180604052508101906115009190612c24565b508273ffffffffffffffffffffffffffffffffffffffff1663874fc5f8826001856040518463ffffffff1660e01b815260040161153e929190612e22565b60206040518083038185885af115801561155c573d6000803e3d6000fd5b50505050506040513d601f19601f820116820180604052508101906115819190612c24565b508273ffffffffffffffffffffffffffffffffffffffff166321df0da76040518163ffffffff1660e01b8152600401602060405180830381865afa1580156115cd573d6000803e3d6000fd5b505050506040513d601f19601f820116820180604052508101906115f19190612b94565b73ffffffffffffffffffffffffffffffffffffffff1663a9059cbb33846040518363ffffffff1660e01b815260040161162b929190612f37565b6020604051808303816000875af115801561164a573d6000803e3d6000fd5b505050506040513d601f19601f8201168201806040525081019061166e9190612c24565b50809450505050509392505050565b60008273ffffffffffffffffffffffffffffffffffffffff16826040516116a39061335e565b60006040518083038185875af1925050503d80600081146116e0576040519150601f19603f3d011682016040523d82523d6000602084013e6116e5565b606091505b5050905080611729576040517f08c379a0000000000000000000000000000000000000000000000000000000008152600401611720906133bf565b60405180910390fd5b505050565b565b606060018054806020026020016040519081016040528092919081815260200182805480156117b457602002820191906000526020600020905b8160009054906101000a900473ffffffffffffffffffffffffffffffffffffffff1673ffffffffffffffffffffffffffffffffffffffff168152602001906001019080831161176a575b5050505050905090565b6000806000808473ffffffffffffffffffffffffffffffffffffffff1673ffffffffffffffffffffffffffffffffffffffff16815260200190815260200160002060009054906101000a900473ffffffffffffffffffffffffffffffffffffffff1690508073ffffffffffffffffffffffffffffffffffffffff166321df0da76040518163ffffffff1660e01b8152600401602060405180830381865afa15801561186d573d6000803e3d6000fd5b505050506040513d601f19601f820116820180604052508101906118919190612b94565b73ffffffffffffffffffffffffffffffffffffffff1663dd62ed3e33306040518363ffffffff1660e01b81526004016118cb9291906133df565b602060405180830381865afa1580156118e8573d6000803e3d6000fd5b505050506040513d601f19601f8201168201806040525081019061190c9190612d66565b915050919050565b60003073ffffffffffffffffffffffffffffffffffffffff1631905090565b60008073ffffffffffffffffffffffffffffffffffffffff166000808573ffffffffffffffffffffffffffffffffffffffff1673ffffffffffffffffffffffffffffffffffffffff16815260200190815260200160002060009054906101000a900473ffffffffffffffffffffffffffffffffffffffff1673ffffffffffffffffffffffffffffffffffffffff1603611a01576040517f08c379a00000000000000000000000000000000000000000000000000000000081526004016119f890612b36565b60405180910390fd5b60008060008573ffffffffffffffffffffffffffffffffffffffff1673ffffffffffffffffffffffffffffffffffffffff16815260200190815260200160002060009054906101000a900473ffffffffffffffffffffffffffffffffffffffff1690508073ffffffffffffffffffffffffffffffffffffffff166321df0da76040518163ffffffff1660e01b8152600401602060405180830381865afa158015611aaf573d6000803e3d6000fd5b505050506040513d601f19601f82011682018060405250810190611ad39190612b94565b73ffffffffffffffffffffffffffffffffffffffff1663579952fc3230866040518463ffffffff1660e01b8152600401611b0f93929190612bc1565b6020604051808303816000875af1158015611b2e573d6000803e3d6000fd5b505050506040513d601f19601f82011682018060405250810190611b529190612c24565b5060008173ffffffffffffffffffffffffffffffffffffffff166377ed0ad66000866040518363ffffffff1660e01b8152600401611b91929190612e22565b602060405180830381865afa158015611bae573d6000803e3d6000fd5b505050506040513d601f19601f82011682018060405250810190611bd29190612d66565b90508173ffffffffffffffffffffffffffffffffffffffff1663874fc5f86000866040518363ffffffff1660e01b8152600401611c10929190612e22565b6020604051808303816000875af1158015611c2f573d6000803e3d6000fd5b505050506040513d601f19601f82011682018060405250810190611c539190612c24565b15611c6d57611c62338261167d565b600192505050611c70565b50505b92915050565b600460009054906101000a900473ffffffffffffffffffffffffffffffffffffffff1673ffffffffffffffffffffffffffffffffffffffff163373ffffffffffffffffffffffffffffffffffffffff1614611cd057600080fd5b60008173ffffffffffffffffffffffffffffffffffffffff166321df0da76040518163ffffffff1660e01b8152600401602060405180830381865afa158015611d1d573d6000803e3d6000fd5b505050506040513d601f19601f82011682018060405250810190611d419190612b94565b9050600081905060008273ffffffffffffffffffffffffffffffffffffffff166395d89b416040518163ffffffff1660e01b8152600401600060405180830381865afa158015611d95573d6000803e3d6000fd5b505050506040513d6000823e3d601f19601f82011682018060405250810190611dbe9190613569565b905060008373ffffffffffffffffffffffffffffffffffffffff166306fdde036040518163ffffffff1660e01b8152600401600060405180830381865afa158015611e0d573d6000803e3d6000fd5b505050506040513d6000823e3d601f19601f82011682018060405250810190611e369190613569565b905060005b6001805490508160ff1610156120c45760018160ff1681548110611e6257611e6161317e565b5b9060005260206000200160009054906101000a900473ffffffffffffffffffffffffffffffffffffffff1673ffffffffffffffffffffffffffffffffffffffff168473ffffffffffffffffffffffffffffffffffffffff1603611ec457600080fd5b611fea8573ffffffffffffffffffffffffffffffffffffffff166395d89b416040518163ffffffff1660e01b8152600401600060405180830381865afa158015611f12573d6000803e3d6000fd5b505050506040513d6000823e3d601f19601f82011682018060405250810190611f3b9190613569565b60028360ff1681548110611f5257611f5161317e565b5b906000526020600020018054611f67906135e1565b80601f0160208091040260200160405190810160405280929190818152602001828054611f93906135e1565b8015611fe05780601f10611fb557610100808354040283529160200191611fe0565b820191906000526020600020905b815481529060010190602001808311611fc357829003601f168201915b5050505050612442565b15611ff457600080fd5b6120a78260038360ff168154811061200f5761200e61317e565b5b906000526020600020018054612024906135e1565b80601f0160208091040260200160405190810160405280929190818152602001828054612050906135e1565b801561209d5780601f106120725761010080835404028352916020019161209d565b820191906000526020600020905b81548152906001019060200180831161208057829003601f168201915b5050505050612442565b156120b157600080fd5b80806120bc906131ba565b915050611e3b565b50846000808573ffffffffffffffffffffffffffffffffffffffff1673ffffffffffffffffffffffffffffffffffffffff16815260200190815260200160002060006101000a81548173ffffffffffffffffffffffffffffffffffffffff021916908373ffffffffffffffffffffffffffffffffffffffff1602179055506001839080600181540180825580915050600190039060005260206000200160009091909190916101000a81548173ffffffffffffffffffffffffffffffffffffffff021916908373ffffffffffffffffffffffffffffffffffffffff1602179055506002829080600181540180825580915050600190039060005260206000200160009091909190915090816121d991906137bf565b5060038190806001815401808255809150506001900390600052602060002001600090919091909150908161220e91906137bf565b505050505050565b60008190505b6001808054905061222d9190612f03565b81101561239757600180826122429190613891565b815481106122535761225261317e565b5b9060005260206000200160009054906101000a900473ffffffffffffffffffffffffffffffffffffffff16600182815481106122925761229161317e565b5b9060005260206000200160006101000a81548173ffffffffffffffffffffffffffffffffffffffff021916908373ffffffffffffffffffffffffffffffffffffffff16021790555060026001826122e99190613891565b815481106122fa576122f961317e565b5b90600052602060002001600282815481106123185761231761317e565b5b90600052602060002001908161232e91906138f0565b50600360018261233e9190613891565b8154811061234f5761234e61317e565b5b906000526020600020016003828154811061236d5761236c61317e565b5b90600052602060002001908161238391906138f0565b50808061238f906139d8565b91505061221c565b5060018054806123aa576123a9613a20565b5b6001900381819060005260206000200160006101000a81549073ffffffffffffffffffffffffffffffffffffffff0219169055905560028054806123f1576123f0613a20565b5b60019003818190600052602060002001600061240d9190612634565b9055600380548061242157612420613a20565b5b60019003818190600052602060002001600061243d9190612634565b905550565b60008061244f8484612458565b14905092915050565b6000808390506000839050600082519050808251101561247757815190505b60005b818110156125da578281815181106124955761249461317e565b5b602001015160f81c60f81b7effffffffffffffffffffffffffffffffffffffffffffffffffffffffffffff19168482815181106124d5576124d461317e565b5b602001015160f81c60f81b7effffffffffffffffffffffffffffffffffffffffffffffffffffffffffffff19161015612534577fffffffffffffffffffffffffffffffffffffffffffffffffffffffffffffffff94505050505061262e565b8281815181106125475761254661317e565b5b602001015160f81c60f81b7effffffffffffffffffffffffffffffffffffffffffffffffffffffffffffff19168482815181106125875761258661317e565b5b602001015160f81c60f81b7effffffffffffffffffffffffffffffffffffffffffffffffffffffffffffff191611156125c757600194505050505061262e565b80806125d2906139d8565b91505061247a565b50815183511015612610577fffffffffffffffffffffffffffffffffffffffffffffffffffffffffffffffff935050505061262e565b815183511115612626576001935050505061262e565b600093505050505b92915050565b508054612640906135e1565b6000825580601f106126525750612671565b601f0160209004906000526020600020908101906126709190612674565b5b50565b5b8082111561268d576000816000905550600101612675565b5090565b6000604051905090565b600080fd5b600080fd5b600073ffffffffffffffffffffffffffffffffffffffff82169050919050565b60006126d0826126a5565b9050919050565b6126e0816126c5565b81146126eb57600080fd5b50565b6000813590506126fd816126d7565b92915050565b6000819050919050565b61271681612703565b811461272157600080fd5b50565b6000813590506127338161270d565b92915050565b600080600080608085870312156127535761275261269b565b5b6000612761878288016126ee565b9450506020612772878288016126ee565b9350506040612783878288016126ee565b925050606061279487828801612724565b91505092959194509250565b60008115159050919050565b6127b5816127a0565b82525050565b60006020820190506127d060008301846127ac565b92915050565b600080604083850312156127ed576127ec61269b565b5b60006127fb858286016126ee565b925050602061280c85828601612724565b9150509250929050565b60008060006060848603121561282f5761282e61269b565b5b600061283d868287016126ee565b935050602061284e868287016126ee565b925050604061285f86828701612724565b9150509250925092565b61287281612703565b82525050565b600060208201905061288d6000830184612869565b92915050565b6000602082840312156128a9576128a861269b565b5b60006128b7848285016126ee565b91505092915050565b6128c9816126c5565b82525050565b60006020820190506128e460008301846128c0565b92915050565b60006128f5826126a5565b9050919050565b612905816128ea565b811461291057600080fd5b50565b600081359050612922816128fc565b92915050565b6000806040838503121561293f5761293e61269b565b5b600061294d85828601612913565b925050602061295e85828601612724565b9150509250929050565b600081519050919050565b600082825260208201905092915050565b6000819050602082019050919050565b61299d816126c5565b82525050565b60006129af8383612994565b60208301905092915050565b6000602082019050919050565b60006129d382612968565b6129dd8185612973565b93506129e883612984565b8060005b83811015612a19578151612a0088826129a3565b9750612a0b836129bb565b9250506001810190506129ec565b5085935050505092915050565b60006020820190508181036000830152612a4081846129c8565b905092915050565b6000612a53826128ea565b9050919050565b612a6381612a48565b8114612a6e57600080fd5b50565b600081359050612a8081612a5a565b92915050565b600060208284031215612a9c57612a9b61269b565b5b6000612aaa84828501612a71565b91505092915050565b600082825260208201905092915050565b7f45786368616e6765202d2073656c6c546f6b656e3a20546f6b656e2066726f6d60008201527f20646f6573206e6f7420737570706f7274656400000000000000000000000000602082015250565b6000612b20603383612ab3565b9150612b2b82612ac4565b604082019050919050565b60006020820190508181036000830152612b4f81612b13565b9050919050565b6000612b61826126c5565b9050919050565b612b7181612b56565b8114612b7c57600080fd5b50565b600081519050612b8e81612b68565b92915050565b600060208284031215612baa57612ba961269b565b5b6000612bb884828501612b7f565b91505092915050565b6000606082019050612bd660008301866128c0565b612be360208301856128c0565b612bf06040830184612869565b949350505050565b612c01816127a0565b8114612c0c57600080fd5b50565b600081519050612c1e81612bf8565b92915050565b600060208284031215612c3a57612c3961269b565b5b6000612c4884828501612c0f565b91505092915050565b7f45786368616e6765202d20627579546f6b656e3a20546f6b656e2066726f6d2060008201527f646f6573206e6f7420737570706f727465640000000000000000000000000000602082015250565b6000612cad603283612ab3565b9150612cb882612c51565b604082019050919050565b60006020820190508181036000830152612cdc81612ca0565b9050919050565b6000819050919050565b6000819050919050565b6000612d12612d0d612d0884612ce3565b612ced565b612703565b9050919050565b612d2281612cf7565b82525050565b6000604082019050612d3d60008301856127ac565b612d4a6020830184612d19565b9392505050565b600081519050612d608161270d565b92915050565b600060208284031215612d7c57612d7b61269b565b5b6000612d8a84828501612d51565b91505092915050565b7f4e487b7100000000000000000000000000000000000000000000000000000000600052601260045260246000fd5b7f4e487b7100000000000000000000000000000000000000000000000000000000600052601160045260246000fd5b6000612dfc82612703565b9150612e0783612703565b925082612e1757612e16612d93565b5b828204905092915050565b6000604082019050612e3760008301856127ac565b612e446020830184612869565b9392505050565b7f52657365727665202d2065786368616e67653a2045544820726563656976656460008201527f20646964206e6f74206d6565742074686520726571756972656420616d6f756e60208201527f7421000000000000000000000000000000000000000000000000000000000000604082015250565b6000612ecd604283612ab3565b9150612ed882612e4b565b606082019050919050565b60006020820190508181036000830152612efc81612ec0565b9050919050565b6000612f0e82612703565b9150612f1983612703565b9250828203905081811115612f3157612f30612dc2565b5b92915050565b6000604082019050612f4c60008301856128c0565b612f596020830184612869565b9392505050565b7f45786368616e6765202d2067657445786368616e6765526174653a20546f6b6560008201527f6e2066726f6d20646f6573206e6f7420737570706f7274656400000000000000602082015250565b6000612fbc603983612ab3565b9150612fc782612f60565b604082019050919050565b60006020820190508181036000830152612feb81612faf565b9050919050565b7f45786368616e6765202d2067657445786368616e6765526174653a20546f6b6560008201527f6e2064657374696e656420646f6573206e6f7420737570706f72746564000000602082015250565b600061304e603d83612ab3565b915061305982612ff2565b604082019050919050565b6000602082019050818103600083015261307d81613041565b9050919050565b7f45786368616e6765202d2067657445786368616e6765526174653a20546f6b6560008201527f6e20616d6f756e747320746f2074726164652068617320746f206265206c617260208201527f676572207468616e203000000000000000000000000000000000000000000000604082015250565b6000613106604a83612ab3565b915061311182613084565b606082019050919050565b60006020820190508181036000830152613135816130f9565b9050919050565b600061314782612703565b915061315283612703565b925082820261316081612703565b9150828204841483151761317757613176612dc2565b5b5092915050565b7f4e487b7100000000000000000000000000000000000000000000000000000000600052603260045260246000fd5b600060ff82169050919050565b60006131c5826131ad565b915060ff82036131d8576131d7612dc2565b5b600182019050919050565b7f45786368616e67653a2063757272656e746c792074686973205265736572766560008201527f20646f65736e74206861766520656e6f7567682064657374696e6174696f6e2060208201527f546f6b656e000000000000000000000000000000000000000000000000000000604082015250565b6000613265604583612ab3565b9150613270826131e3565b606082019050919050565b6000602082019050818103600083015261329481613258565b9050919050565b7f45786368616e67653a2073656e64657220646f65736e2774206861766520656e60008201527f6f75676820546f6b656e73000000000000000000000000000000000000000000602082015250565b60006132f7602b83612ab3565b91506133028261329b565b604082019050919050565b60006020820190508181036000830152613326816132ea565b9050919050565b600081905092915050565b50565b600061334860008361332d565b915061335382613338565b600082019050919050565b60006133698261333b565b9150819050919050565b7f526573657276653a204661696c656420746f2073656e64204574686572000000600082015250565b60006133a9601d83612ab3565b91506133b482613373565b602082019050919050565b600060208201905081810360008301526133d88161339c565b9050919050565b60006040820190506133f460008301856128c0565b61340160208301846128c0565b9392505050565b600080fd5b600080fd5b6000601f19601f8301169050919050565b7f4e487b7100000000000000000000000000000000000000000000000000000000600052604160045260246000fd5b61345b82613412565b810181811067ffffffffffffffff8211171561347a57613479613423565b5b80604052505050565b600061348d612691565b90506134998282613452565b919050565b600067ffffffffffffffff8211156134b9576134b8613423565b5b6134c282613412565b9050602081019050919050565b60005b838110156134ed5780820151818401526020810190506134d2565b60008484015250505050565b600061350c6135078461349e565b613483565b9050828152602081018484840111156135285761352761340d565b5b6135338482856134cf565b509392505050565b600082601f8301126135505761354f613408565b5b81516135608482602086016134f9565b91505092915050565b60006020828403121561357f5761357e61269b565b5b600082015167ffffffffffffffff81111561359d5761359c6126a0565b5b6135a98482850161353b565b91505092915050565b7f4e487b7100000000000000000000000000000000000000000000000000000000600052602260045260246000fd5b600060028204905060018216806135f957607f821691505b60208210810361360c5761360b6135b2565b5b50919050565b600081519050919050565b60008190508160005260206000209050919050565b60006020601f8301049050919050565b600082821b905092915050565b60006008830261367f7fffffffffffffffffffffffffffffffffffffffffffffffffffffffffffffffff82613642565b6136898683613642565b95508019841693508086168417925050509392505050565b60006136bc6136b76136b284612703565b612ced565b612703565b9050919050565b6000819050919050565b6136d6836136a1565b6136ea6136e2826136c3565b84845461364f565b825550505050565b600090565b6136ff6136f2565b61370a8184846136cd565b505050565b5b8181101561372e576137236000826136f7565b600181019050613710565b5050565b601f821115613773576137448161361d565b61374d84613632565b8101602085101561375c578190505b61377061376885613632565b83018261370f565b50505b505050565b600082821c905092915050565b600061379660001984600802613778565b1980831691505092915050565b60006137af8383613785565b9150826002028217905092915050565b6137c882613612565b67ffffffffffffffff8111156137e1576137e0613423565b5b6137eb82546135e1565b6137f6828285613732565b600060209050601f8311600181146138295760008415613817578287015190505b61382185826137a3565b865550613889565b601f1984166138378661361d565b60005b8281101561385f5784890151825560018201915060208501945060208101905061383a565b8683101561387c5784890151613878601f891682613785565b8355505b6001600288020188555050505b505050505050565b600061389c82612703565b91506138a783612703565b92508282019050808211156138bf576138be612dc2565b5b92915050565b6000815490506138d4816135e1565b9050919050565b60008190508160005260206000209050919050565b8181036138fe5750506139d6565b613907826138c5565b67ffffffffffffffff8111156139205761391f613423565b5b61392a82546135e1565b613935828285613732565b6000601f8311600181146139645760008415613952578287015490505b61395c85826137a3565b8655506139cf565b601f198416613972876138db565b965061397d8661361d565b60005b828110156139a557848901548255600182019150600185019450602081019050613980565b868310156139c257848901546139be601f891682613785565b8355505b6001600288020188555050505b5050505050505b565b60006139e382612703565b91507fffffffffffffffffffffffffffffffffffffffffffffffffffffffffffffffff8203613a1557613a14612dc2565b5b600182019050919050565b7f4e487b7100000000000000000000000000000000000000000000000000000000600052603160045260246000fdfea26469706673582212208c88e31ca7dd0cd9ce084b316f281ce1c0faa2331169ca8aaf55795c8b161af664736f6c63430008120033",
  "immutableReferences": {},
  "source": "pragma solidity ^0.8.0;\r\n\r\nimport \"./Reserve.sol\";\r\nimport \"./BasicToken.sol\";\r\n\r\n\r\ncontract Exchange {\r\n    mapping(address => address) token_reserve_map;\r\n    address[] tokenAddresses;\r\n    string[] tokenSymbols;\r\n    string[] tokenNames;\r\n    address public owner;\r\n\r\n    modifier onlyOwner() {\r\n        require(msg.sender == owner);\r\n        _;\r\n    }\r\n\r\n    constructor() public {\r\n        owner = msg.sender;\r\n    }\r\n\r\n    receive() external payable {}\r\n\r\n    function checkEthBalance() public view returns (uint256) {\r\n        return (payable(address(this))).balance;\r\n    }\r\n\r\n    function getListOfSupportedTokens() public view returns (address[] memory) {\r\n        return tokenAddresses;\r\n    }\r\n\r\n    function getExchangeRate(\r\n        // token to sell\r\n        address srcToken,\r\n        // token to buy\r\n        address destToken,\r\n        uint256 srcAmount\r\n    ) public view returns (uint256) {\r\n        require(\r\n            token_reserve_map[payable(srcToken)] != address(0x0),\r\n            \"Exchange - getExchangeRate: Token from does not supported\"\r\n        );\r\n        require(\r\n            token_reserve_map[destToken] != address(0x0),\r\n            \"Exchange - getExchangeRate: Token destined does not supported\"\r\n        );\r\n        require(\r\n            srcAmount > 0,\r\n            \"Exchange - getExchangeRate: Token amounts to trade has to be larger than 0\"\r\n        );\r\n        uint256 rate = ((Reserve(payable(token_reserve_map[payable(srcToken)])).getExchangeRate(false, srcAmount) * 10**9) /Reserve(payable(token_reserve_map[payable(destToken)])).getExchangeRate(true, 1)) * 10**9;\r\n        return rate;\r\n    }\r\n\r\n    function exchange(\r\n        address srcToken,\r\n        address destToken,\r\n        uint256 srcAmount\r\n    ) public payable returns (uint256) {\r\n        require(\r\n            token_reserve_map[payable(srcToken)] != address(0x0),\r\n            \"Exchange - getExchangeRate: Token from does not supported\"\r\n        );\r\n        require(\r\n            token_reserve_map[destToken] != address(0x0),\r\n            \"Exchange - getExchangeRate: Token destined does not supported\"\r\n        );\r\n        require(\r\n            srcAmount > 0,\r\n            \"Exchange - getExchangeRate: Token amounts to trade has to be larger than 0\"\r\n        );\r\n        Reserve srcReserve = Reserve(payable(token_reserve_map[srcToken]));\r\n        Reserve destReserve = Reserve(payable(token_reserve_map[destToken]));\r\n\r\n        uint256 destAmount = getExchangeRate(srcToken, destToken, srcAmount) / 10 ** 18;\r\n        uint256 weiToBuy = destReserve.getExchangeRate(true, destAmount) ;\r\n        require(\r\n            destReserve.getBalanceOf(address(destReserve)) >= destAmount,\r\n            \"Exchange: currently this Reserve doesnt have enough destination Token\"\r\n        );\r\n\r\n        // Step 1: Transfer amount token original to exchange contract\r\n        srcReserve.getToken().transferFromTo(tx.origin, address(this) , srcAmount);\r\n        require(\r\n            srcReserve.getBalanceOf(address(this)) >= srcAmount,\r\n            \"Exchange: sender doesn't have enough Tokens\"\r\n        );\r\n        // Step 2: Sell token to original reserve to get ETH\r\n        srcReserve.exchange(false, srcAmount);\r\n        // Step 3: Use receive ETH to buy Tokens from dest Reserve\r\n        destReserve.exchange{value: weiToBuy}(true, destAmount);\r\n        // Step 4: Send received token from contract to user\r\n        destReserve.getToken().transfer(msg.sender, destAmount);\r\n        return weiToBuy;\r\n    }\r\n\r\n    function deposit() public payable {}\r\n\r\n    function getAllowance(address srcToken) public view returns (uint256) {\r\n        Reserve srcReserve = Reserve(payable(token_reserve_map[srcToken]));\r\n\r\n        return srcReserve.getToken().allowance(msg.sender, address(this));\r\n    }\r\n\r\n    function buyToken(address srcToken, uint256 srcAmount)\r\n        public\r\n        payable\r\n        returns (bool)\r\n    {\r\n        require(\r\n            token_reserve_map[payable(srcToken)] != address(0x0),\r\n            \"Exchange - buyToken: Token from does not supported\"\r\n        );\r\n        Reserve srcReserve = Reserve(payable(token_reserve_map[srcToken]));\r\n        uint256 destAmount = 10**18 / srcReserve.getExchangeRate(true, 1);\r\n        uint256 ethToBuy = srcReserve.getExchangeRate(true, destAmount); // get ammount of ETH required to buy \"amount\" of token\r\n        require(\r\n            msg.value >= ethToBuy,\r\n            \"Reserve - exchange: ETH received did not meet the required amount!\"\r\n        ); // check if the deposited ETH is enough to buy token\r\n        if (msg.value > ethToBuy) {\r\n            // refund\r\n            uint256 ethToRefund = msg.value - ethToBuy; // get refund amount\r\n            address payable addressToRefund = payable(msg.sender); // convert address to payable address\r\n            transfer(addressToRefund, ethToRefund); // refund excess ETH for user\r\n        }\r\n        if(srcReserve.exchange{value: ethToBuy}(true, destAmount)){\r\n            srcReserve.getToken().transfer(tx.origin, destAmount);\r\n        } \r\n    }\r\n\r\n    function sellToken(address srcToken, uint256 srcAmount)\r\n        public\r\n        payable\r\n        returns (bool)\r\n    {\r\n        require(\r\n            token_reserve_map[payable(srcToken)] != address(0x0),\r\n            \"Exchange - sellToken: Token from does not supported\"\r\n        );\r\n        Reserve srcReserve = Reserve(payable(token_reserve_map[srcToken]));\r\n        srcReserve.getToken().transferFromTo(tx.origin, address(this), srcAmount);\r\n        uint256 ethToRecieve = srcReserve.getExchangeRate(false, srcAmount);\r\n        if(srcReserve.exchange(false, srcAmount)){\r\n            transfer(payable(msg.sender), ethToRecieve);\r\n            return true;\r\n        }\r\n    }\r\n\r\n    function transferToken(address token, address from, address to, uint256 srcAmount) public returns (bool) {\r\n        require(\r\n            token_reserve_map[payable(token)] != address(0x0),\r\n            \"Exchange - sellToken: Token from does not supported\"\r\n        );\r\n        Reserve srcReserve = Reserve(payable(token_reserve_map[token]));\r\n        return srcReserve.getToken().transferFromTo(from, to, srcAmount);\r\n    }\r\n\r\n    function transfer(address payable _to, uint _amount) public {\r\n        // Note that \"to\" is declared as payable\r\n        (bool success, ) = _to.call{value: _amount}(\"\");\r\n        require(success, \"Reserve: Failed to send Ether\");\r\n    }\r\n\r\n\r\n    function addReserve(Reserve newReserve) public onlyOwner {\r\n        // get token\r\n        BasicToken token = newReserve.getToken();\r\n        address tokenAddress = address(token);\r\n        string memory symbol = token.symbol();\r\n        string memory name = token.name();\r\n\r\n        // Validate new token: new token must not exist in tokenAddresses\r\n        for (uint8 index = 0; index < tokenAddresses.length; index++) {\r\n            require(tokenAddress != tokenAddresses[index]);\r\n            require(!equal(token.symbol(), tokenSymbols[index]));\r\n            require(!equal(name, tokenNames[index]));\r\n        }\r\n\r\n        // mapping token to reserve\r\n        token_reserve_map[tokenAddress] = address(newReserve);\r\n        // add token to list of tokens (Using in getting list of supported token)\r\n        tokenAddresses.push(tokenAddress);\r\n        tokenSymbols.push(symbol);\r\n        tokenNames.push(name);\r\n    }\r\n\r\n    // // Remove reserve\r\n    function removeReserve(address tokenAddress) public onlyOwner {\r\n        for (uint8 index = 0; index < tokenAddresses.length; index++) {\r\n            if (tokenAddress == tokenAddresses[index]) {\r\n                removeReserveData(index);\r\n                break;\r\n            }\r\n        }\r\n        delete token_reserve_map[tokenAddress];\r\n    }\r\n\r\n    function removeReserveData(uint256 index) private {\r\n        // y cc phn t pha sau ln pha trc 1 n v\r\n        for (uint256 i = index; i < tokenAddresses.length - 1; i++) {\r\n            tokenAddresses[i] = tokenAddresses[i + 1];\r\n            tokenSymbols[i] = tokenSymbols[i + 1];\r\n            tokenNames[i] = tokenNames[i + 1];\r\n        }\r\n        // Xa b phn t cui cng\r\n        tokenAddresses.pop();\r\n        tokenSymbols.pop();\r\n        tokenNames.pop();\r\n    }\r\n\r\n    function compare(string memory _a, string memory _b)\r\n        private\r\n        pure\r\n        returns (int256)\r\n    {\r\n        bytes memory a = bytes(_a);\r\n        bytes memory b = bytes(_b);\r\n        uint256 minLength = a.length;\r\n        if (b.length < minLength) minLength = b.length;\r\n        //@todo unroll the loop into increments of 32 and do full 32 byte comparisons\r\n        for (uint256 i = 0; i < minLength; i++)\r\n            if (a[i] < b[i]) return -1;\r\n            else if (a[i] > b[i]) return 1;\r\n        if (a.length < b.length) return -1;\r\n        else if (a.length > b.length) return 1;\r\n        else return 0;\r\n    }\r\n\r\n    /// @dev Compares two strings and returns true iff they are equal.\r\n    function equal(string memory _a, string memory _b)\r\n        private\r\n        pure\r\n        returns (bool)\r\n    {\r\n        return compare(_a, _b) == 0;\r\n    }\r\n\r\n    function mul(uint256 x, uint256 y) internal pure returns (uint256 z) {\r\n        require(y == 0 || (z = x * y) / y == x, \"ds-math-mul-overflow\");\r\n    }\r\n}\r\n",
  "sourcePath": "G:\\BDP-2023\\contracts\\Exchange.sol",
  "compiler": {
    "name": "solc",
    "version": "0.8.18+commit.87f61d96.Emscripten.clang"
  },
  "schemaVersion": "3.4.12",
  "updatedAt": "2023-04-26T22:44:15.972Z",
  "networkType": "ethereum",
  "devdoc": {
    "kind": "dev",
    "methods": {},
    "version": 1
  },
  "userdoc": {
    "kind": "user",
    "methods": {},
    "version": 1
  }
}