{
  "contractName": "Reserve",
  "abi": [
    {
      "inputs": [
        {
          "internalType": "string",
          "name": "name",
          "type": "string"
        },
        {
          "internalType": "string",
          "name": "symbol",
          "type": "string"
        },
        {
          "internalType": "uint256",
          "name": "sellRate",
          "type": "uint256"
        },
        {
          "internalType": "uint256",
          "name": "buyRate",
          "type": "uint256"
        }
      ],
      "stateMutability": "payable",
      "type": "constructor",
      "payable": true
    },
    {
      "stateMutability": "payable",
      "type": "receive",
      "payable": true
    },
    {
      "inputs": [
        {
          "internalType": "uint256",
          "name": "buyRate",
          "type": "uint256"
        },
        {
          "internalType": "uint256",
          "name": "sellRate",
          "type": "uint256"
        }
      ],
      "name": "setExchangeRates",
      "outputs": [],
      "stateMutability": "nonpayable",
      "type": "function"
    },
    {
      "inputs": [
        {
          "internalType": "bool",
          "name": "isBuy",
          "type": "bool"
        },
        {
          "internalType": "uint256",
          "name": "srcAmount",
          "type": "uint256"
        }
      ],
      "name": "getExchangeRate",
      "outputs": [
        {
          "internalType": "uint256",
          "name": "",
          "type": "uint256"
        }
      ],
      "stateMutability": "view",
      "type": "function",
      "constant": true
    },
    {
      "inputs": [
        {
          "internalType": "bool",
          "name": "isBuy",
          "type": "bool"
        },
        {
          "internalType": "uint256",
          "name": "amount",
          "type": "uint256"
        }
      ],
      "name": "exchange",
      "outputs": [
        {
          "internalType": "bool",
          "name": "",
          "type": "bool"
        }
      ],
      "stateMutability": "payable",
      "type": "function",
      "payable": true
    },
    {
      "inputs": [],
      "name": "deposit",
      "outputs": [],
      "stateMutability": "payable",
      "type": "function",
      "payable": true
    },
    {
      "inputs": [],
      "name": "withdraw",
      "outputs": [],
      "stateMutability": "nonpayable",
      "type": "function"
    },
    {
      "inputs": [
        {
          "internalType": "address payable",
          "name": "_to",
          "type": "address"
        },
        {
          "internalType": "uint256",
          "name": "_amount",
          "type": "uint256"
        }
      ],
      "name": "transfer",
      "outputs": [],
      "stateMutability": "nonpayable",
      "type": "function"
    },
    {
      "inputs": [],
      "name": "getTokenAddress",
      "outputs": [
        {
          "internalType": "address",
          "name": "",
          "type": "address"
        }
      ],
      "stateMutability": "view",
      "type": "function",
      "constant": true
    },
    {
      "inputs": [],
      "name": "getSupportedToken",
      "outputs": [
        {
          "internalType": "string",
          "name": "",
          "type": "string"
        }
      ],
      "stateMutability": "view",
      "type": "function",
      "constant": true
    },
    {
      "inputs": [
        {
          "internalType": "address",
          "name": "account",
          "type": "address"
        }
      ],
      "name": "getBalanceOf",
      "outputs": [
        {
          "internalType": "uint256",
          "name": "",
          "type": "uint256"
        }
      ],
      "stateMutability": "view",
      "type": "function",
      "constant": true
    },
    {
      "inputs": [],
      "name": "getToken",
      "outputs": [
        {
          "internalType": "contract BasicToken",
          "name": "",
          "type": "address"
        }
      ],
      "stateMutability": "view",
      "type": "function",
      "constant": true
    },
    {
      "inputs": [],
      "name": "getSellRate",
      "outputs": [
        {
          "internalType": "uint256",
          "name": "",
          "type": "uint256"
        }
      ],
      "stateMutability": "view",
      "type": "function",
      "constant": true
    },
    {
      "inputs": [],
      "name": "getBuyRate",
      "outputs": [
        {
          "internalType": "uint256",
          "name": "",
          "type": "uint256"
        }
      ],
      "stateMutability": "view",
      "type": "function",
      "constant": true
    },
    {
      "inputs": [
        {
          "internalType": "address",
          "name": "",
          "type": "address"
        }
      ],
      "name": "getContractBalance",
      "outputs": [
        {
          "internalType": "uint256",
          "name": "",
          "type": "uint256"
        }
      ],
      "stateMutability": "view",
      "type": "function",
      "constant": true
    },
    {
      "inputs": [
        {
          "internalType": "address",
          "name": "owner",
          "type": "address"
        },
        {
          "internalType": "address",
          "name": "spender",
          "type": "address"
        }
      ],
      "name": "viewAllowance",
      "outputs": [
        {
          "internalType": "uint256",
          "name": "",
          "type": "uint256"
        }
      ],
      "stateMutability": "view",
      "type": "function",
      "constant": true
    }
  ],
  "bytecode": "0x60806040526001600255600160035560405180602001604052806000815250600490816200002e9190620003eb565b50604051620036be380380620036be833981810160405281019062000054919062000667565b336000806101000a81548173ffffffffffffffffffffffffffffffffffffffff021916908373ffffffffffffffffffffffffffffffffffffffff1602179055508383604051620000a49062000163565b620000b192919062000769565b604051809103906000f080158015620000ce573d6000803e3d6000fd5b50600160006101000a81548173ffffffffffffffffffffffffffffffffffffffff021916908373ffffffffffffffffffffffffffffffffffffffff1602179055508360049081620001209190620003eb565b5080670de0b6b3a7640000620001379190620007d3565b60038190555081670de0b6b3a7640000620001539190620007d3565b600281905550505050506200080b565b6118718062001e4d83390190565b600081519050919050565b7f4e487b7100000000000000000000000000000000000000000000000000000000600052604160045260246000fd5b7f4e487b7100000000000000000000000000000000000000000000000000000000600052602260045260246000fd5b60006002820490506001821680620001f357607f821691505b602082108103620002095762000208620001ab565b5b50919050565b60008190508160005260206000209050919050565b60006020601f8301049050919050565b600082821b905092915050565b600060088302620002737fffffffffffffffffffffffffffffffffffffffffffffffffffffffffffffffff8262000234565b6200027f868362000234565b95508019841693508086168417925050509392505050565b6000819050919050565b6000819050919050565b6000620002cc620002c6620002c08462000297565b620002a1565b62000297565b9050919050565b6000819050919050565b620002e883620002ab565b62000300620002f782620002d3565b84845462000241565b825550505050565b600090565b6200031762000308565b62000324818484620002dd565b505050565b5b818110156200034c57620003406000826200030d565b6001810190506200032a565b5050565b601f8211156200039b5762000365816200020f565b620003708462000224565b8101602085101562000380578190505b620003986200038f8562000224565b83018262000329565b50505b505050565b600082821c905092915050565b6000620003c060001984600802620003a0565b1980831691505092915050565b6000620003db8383620003ad565b9150826002028217905092915050565b620003f68262000171565b67ffffffffffffffff8111156200041257620004116200017c565b5b6200041e8254620001da565b6200042b82828562000350565b600060209050601f8311600181146200046357600084156200044e578287015190505b6200045a8582620003cd565b865550620004ca565b601f19841662000473866200020f565b60005b828110156200049d5784890151825560018201915060208501945060208101905062000476565b86831015620004bd5784890151620004b9601f891682620003ad565b8355505b6001600288020188555050505b505050505050565b6000604051905090565b600080fd5b600080fd5b600080fd5b600080fd5b6000601f19601f8301169050919050565b6200050c82620004f0565b810181811067ffffffffffffffff821117156200052e576200052d6200017c565b5b80604052505050565b600062000543620004d2565b905062000551828262000501565b919050565b600067ffffffffffffffff8211156200057457620005736200017c565b5b6200057f82620004f0565b9050602081019050919050565b60005b83811015620005ac5780820151818401526020810190506200058f565b60008484015250505050565b6000620005cf620005c98462000556565b62000537565b905082815260208101848484011115620005ee57620005ed620004eb565b5b620005fb8482856200058c565b509392505050565b600082601f8301126200061b576200061a620004e6565b5b81516200062d848260208601620005b8565b91505092915050565b620006418162000297565b81146200064d57600080fd5b50565b600081519050620006618162000636565b92915050565b60008060008060808587031215620006845762000683620004dc565b5b600085015167ffffffffffffffff811115620006a557620006a4620004e1565b5b620006b38782880162000603565b945050602085015167ffffffffffffffff811115620006d757620006d6620004e1565b5b620006e58782880162000603565b9350506040620006f88782880162000650565b92505060606200070b8782880162000650565b91505092959194509250565b600082825260208201905092915050565b6000620007358262000171565b62000741818562000717565b9350620007538185602086016200058c565b6200075e81620004f0565b840191505092915050565b6000604082019050818103600083015262000785818562000728565b905081810360208301526200079b818462000728565b90509392505050565b7f4e487b7100000000000000000000000000000000000000000000000000000000600052601260045260246000fd5b6000620007e08262000297565b9150620007ed8362000297565b9250826200080057620007ff620007a4565b5b828204905092915050565b611632806200081b6000396000f3fe6080604052600436106100e15760003560e01c806377ed0ad61161007f578063a9059cbb11610059578063a9059cbb146102d4578063b2a06164146102fd578063d0e30db014610328578063e637a44b14610332576100e8565b806377ed0ad61461022a578063874fc5f8146102675780639b96eece14610297576100e8565b80633ccfd60b116100bb5780633ccfd60b1461016e5780633d35d7ba1461018557806343ab265f146101b05780634ca62993146101ed576100e8565b806310fe9ae8146100ed57806321df0da714610118578063226fd9eb14610143576100e8565b366100e857005b600080fd5b3480156100f957600080fd5b5061010261035b565b60405161010f9190610bf0565b60405180910390f35b34801561012457600080fd5b5061012d610385565b60405161013a9190610c6a565b60405180910390f35b34801561014f57600080fd5b506101586103af565b6040516101659190610c9e565b60405180910390f35b34801561017a57600080fd5b506101836103b9565b005b34801561019157600080fd5b5061019a61048f565b6040516101a79190610c9e565b60405180910390f35b3480156101bc57600080fd5b506101d760048036038101906101d29190610cea565b610499565b6040516101e49190610c9e565b60405180910390f35b3480156101f957600080fd5b50610214600480360381019061020f9190610d17565b6104a3565b6040516102219190610c9e565b60405180910390f35b34801561023657600080fd5b50610251600480360381019061024c9190610dbb565b61054a565b60405161025e9190610c9e565b60405180910390f35b610281600480360381019061027c9190610dbb565b6105ce565b60405161028e9190610e0a565b60405180910390f35b3480156102a357600080fd5b506102be60048036038101906102b99190610cea565b6108ad565b6040516102cb9190610c9e565b60405180910390f35b3480156102e057600080fd5b506102fb60048036038101906102f69190610e63565b610952565b005b34801561030957600080fd5b50610312610a03565b60405161031f9190610f33565b60405180910390f35b610330610a95565b005b34801561033e57600080fd5b5061035960048036038101906103549190610f55565b610a97565b005b6000600160009054906101000a900473ffffffffffffffffffffffffffffffffffffffff16905090565b6000600160009054906101000a900473ffffffffffffffffffffffffffffffffffffffff16905090565b6000600254905090565b600047905060008060009054906101000a900473ffffffffffffffffffffffffffffffffffffffff1673ffffffffffffffffffffffffffffffffffffffff168260405161040590610fc6565b60006040518083038185875af1925050503d8060008114610442576040519150601f19603f3d011682016040523d82523d6000602084013e610447565b606091505b505090508061048b576040517f08c379a000000000000000000000000000000000000000000000000000000000815260040161048290611027565b60405180910390fd5b5050565b6000600354905090565b6000479050919050565b6000600160009054906101000a900473ffffffffffffffffffffffffffffffffffffffff1673ffffffffffffffffffffffffffffffffffffffff1663dd62ed3e84846040518363ffffffff1660e01b8152600401610502929190611047565b602060405180830381865afa15801561051f573d6000803e3d6000fd5b505050506040513d601f19601f820116820180604052508101906105439190611085565b5092915050565b600080821161058e576040517f08c379a0000000000000000000000000000000000000000000000000000000008152600401610585906110fe565b60405180910390fd5b82156105a957600354826105a2919061114d565b90506105c8565b826105c357600254826105bc919061114d565b90506105c8565b600080fd5b92915050565b6000808211610612576040517f08c379a000000000000000000000000000000000000000000000000000000000815260040161060990611201565b60405180910390fd5b821561073d576000610624848461054a565b905080341015610669576040517f08c379a0000000000000000000000000000000000000000000000000000000008152600401610660906112b9565b60405180910390fd5b80341115610693576000813461067f91906112d9565b905060003390506106908183610952565b50505b600160009054906101000a900473ffffffffffffffffffffffffffffffffffffffff1673ffffffffffffffffffffffffffffffffffffffff1663579952fc3033866040518463ffffffff1660e01b81526004016106f29392919061130d565b6020604051808303816000875af1158015610711573d6000803e3d6000fd5b505050506040513d601f19601f820116820180604052508101906107359190611359565b9150506108a7565b826108a2578161074c336108ad565b101561078d576040517f08c379a0000000000000000000000000000000000000000000000000000000008152600401610784906113f8565b60405180910390fd5b6000610799848461054a565b9050806107a530610499565b116107e5576040517f08c379a00000000000000000000000000000000000000000000000000000000081526004016107dc9061148a565b60405180910390fd5b60003390506107f48183610952565b600160009054906101000a900473ffffffffffffffffffffffffffffffffffffffff1673ffffffffffffffffffffffffffffffffffffffff1663579952fc3330876040518463ffffffff1660e01b81526004016108539392919061130d565b6020604051808303816000875af1158015610872573d6000803e3d6000fd5b505050506040513d601f19601f820116820180604052508101906108969190611359565b506001925050506108a7565b600080fd5b92915050565b6000600160009054906101000a900473ffffffffffffffffffffffffffffffffffffffff1673ffffffffffffffffffffffffffffffffffffffff166370a08231836040518263ffffffff1660e01b815260040161090a9190610bf0565b602060405180830381865afa158015610927573d6000803e3d6000fd5b505050506040513d601f19601f8201168201806040525081019061094b9190611085565b9050919050565b60008273ffffffffffffffffffffffffffffffffffffffff168260405161097890610fc6565b60006040518083038185875af1925050503d80600081146109b5576040519150601f19603f3d011682016040523d82523d6000602084013e6109ba565b606091505b50509050806109fe576040517f08c379a00000000000000000000000000000000000000000000000000000000081526004016109f590611027565b60405180910390fd5b505050565b606060048054610a12906114d9565b80601f0160208091040260200160405190810160405280929190818152602001828054610a3e906114d9565b8015610a8b5780601f10610a6057610100808354040283529160200191610a8b565b820191906000526020600020905b815481529060010190602001808311610a6e57829003601f168201915b5050505050905090565b565b60008054906101000a900473ffffffffffffffffffffffffffffffffffffffff1673ffffffffffffffffffffffffffffffffffffffff163373ffffffffffffffffffffffffffffffffffffffff1614610aef57600080fd5b6000821015610b33576040517f08c379a0000000000000000000000000000000000000000000000000000000008152600401610b2a9061157c565b60405180910390fd5b6000811015610b77576040517f08c379a0000000000000000000000000000000000000000000000000000000008152600401610b6e9061157c565b60405180910390fd5b81670de0b6b3a7640000610b8b91906115cb565b60038190555080670de0b6b3a7640000610ba591906115cb565b6002819055505050565b600073ffffffffffffffffffffffffffffffffffffffff82169050919050565b6000610bda82610baf565b9050919050565b610bea81610bcf565b82525050565b6000602082019050610c056000830184610be1565b92915050565b6000819050919050565b6000610c30610c2b610c2684610baf565b610c0b565b610baf565b9050919050565b6000610c4282610c15565b9050919050565b6000610c5482610c37565b9050919050565b610c6481610c49565b82525050565b6000602082019050610c7f6000830184610c5b565b92915050565b6000819050919050565b610c9881610c85565b82525050565b6000602082019050610cb36000830184610c8f565b92915050565b600080fd5b610cc781610bcf565b8114610cd257600080fd5b50565b600081359050610ce481610cbe565b92915050565b600060208284031215610d0057610cff610cb9565b5b6000610d0e84828501610cd5565b91505092915050565b60008060408385031215610d2e57610d2d610cb9565b5b6000610d3c85828601610cd5565b9250506020610d4d85828601610cd5565b9150509250929050565b60008115159050919050565b610d6c81610d57565b8114610d7757600080fd5b50565b600081359050610d8981610d63565b92915050565b610d9881610c85565b8114610da357600080fd5b50565b600081359050610db581610d8f565b92915050565b60008060408385031215610dd257610dd1610cb9565b5b6000610de085828601610d7a565b9250506020610df185828601610da6565b9150509250929050565b610e0481610d57565b82525050565b6000602082019050610e1f6000830184610dfb565b92915050565b6000610e3082610baf565b9050919050565b610e4081610e25565b8114610e4b57600080fd5b50565b600081359050610e5d81610e37565b92915050565b60008060408385031215610e7a57610e79610cb9565b5b6000610e8885828601610e4e565b9250506020610e9985828601610da6565b9150509250929050565b600081519050919050565b600082825260208201905092915050565b60005b83811015610edd578082015181840152602081019050610ec2565b60008484015250505050565b6000601f19601f8301169050919050565b6000610f0582610ea3565b610f0f8185610eae565b9350610f1f818560208601610ebf565b610f2881610ee9565b840191505092915050565b60006020820190508181036000830152610f4d8184610efa565b905092915050565b60008060408385031215610f6c57610f6b610cb9565b5b6000610f7a85828601610da6565b9250506020610f8b85828601610da6565b9150509250929050565b600081905092915050565b50565b6000610fb0600083610f95565b9150610fbb82610fa0565b600082019050919050565b6000610fd182610fa3565b9150819050919050565b7f526573657276653a204661696c656420746f2073656e64204574686572000000600082015250565b6000611011601d83610eae565b915061101c82610fdb565b602082019050919050565b6000602082019050818103600083015261104081611004565b9050919050565b600060408201905061105c6000830185610be1565b6110696020830184610be1565b9392505050565b60008151905061107f81610d8f565b92915050565b60006020828403121561109b5761109a610cb9565b5b60006110a984828501611070565b91505092915050565b7f526573657276653a20416d6f756e74206861766520746f206265203e20300000600082015250565b60006110e8601e83610eae565b91506110f3826110b2565b602082019050919050565b60006020820190508181036000830152611117816110db565b9050919050565b7f4e487b7100000000000000000000000000000000000000000000000000000000600052601160045260246000fd5b600061115882610c85565b915061116383610c85565b925082820261117181610c85565b915082820484148315176111885761118761111e565b5b5092915050565b7f526573657276653a20416d6f756e74206861732074686520626520677265617460008201527f6572207468616e20300000000000000000000000000000000000000000000000602082015250565b60006111eb602983610eae565b91506111f68261118f565b604082019050919050565b6000602082019050818103600083015261121a816111de565b9050919050565b7f52657365727665202d2065786368616e67653a2045544820726563656976656460008201527f20646964206e6f74206d6565742074686520726571756972656420616d6f756e60208201527f7421000000000000000000000000000000000000000000000000000000000000604082015250565b60006112a3604283610eae565b91506112ae82611221565b606082019050919050565b600060208201905081810360008301526112d281611296565b9050919050565b60006112e482610c85565b91506112ef83610c85565b92508282039050818111156113075761130661111e565b5b92915050565b60006060820190506113226000830186610be1565b61132f6020830185610be1565b61133c6040830184610c8f565b949350505050565b60008151905061135381610d63565b92915050565b60006020828403121561136f5761136e610cb9565b5b600061137d84828501611344565b91505092915050565b7f52657365727665202d2065786368616e67653a20436865636b2069662073656c60008201527f6c6572206861766520656e6f75676820746f6b656e7321000000000000000000602082015250565b60006113e2603783610eae565b91506113ed82611386565b604082019050919050565b60006020820190508181036000830152611411816113d5565b9050919050565b7f52657365727665202d2065786368616e67653a20436865636b2069662072657360008201527f65727665206861766520656e6f7567682045544820746f206275792100000000602082015250565b6000611474603c83610eae565b915061147f82611418565b604082019050919050565b600060208201905081810360008301526114a381611467565b9050919050565b7f4e487b7100000000000000000000000000000000000000000000000000000000600052602260045260246000fd5b600060028204905060018216806114f157607f821691505b602082108103611504576115036114aa565b5b50919050565b7f526573657276653a2052617465206d757374206265206772656174657220746860008201527f616e203000000000000000000000000000000000000000000000000000000000602082015250565b6000611566602483610eae565b91506115718261150a565b604082019050919050565b6000602082019050818103600083015261159581611559565b9050919050565b7f4e487b7100000000000000000000000000000000000000000000000000000000600052601260045260246000fd5b60006115d682610c85565b91506115e183610c85565b9250826115f1576115f061159c565b5b82820490509291505056fea2646970667358221220811cddd808991d8b41720b29a8252823a1d844d8c0d72d5b757ecae1a0ce7d7164736f6c6343000812003360806040526012600a62000014919062000266565b620f4240620000249190620002b7565b6004553480156200003457600080fd5b50604051620018713803806200187183398181016040528101906200005a919062000495565b81600090816200006b91906200075b565b5080600190816200007d91906200075b565b50600454600260003373ffffffffffffffffffffffffffffffffffffffff1673ffffffffffffffffffffffffffffffffffffffff16815260200190815260200160002081905550505062000842565b7f4e487b7100000000000000000000000000000000000000000000000000000000600052601160045260246000fd5b60008160011c9050919050565b6000808291508390505b60018511156200015a57808604811115620001325762000131620000cc565b5b6001851615620001425780820291505b80810290506200015285620000fb565b945062000112565b94509492505050565b60008262000175576001905062000248565b8162000185576000905062000248565b81600181146200019e5760028114620001a957620001df565b600191505062000248565b60ff841115620001be57620001bd620000cc565b5b8360020a915084821115620001d857620001d7620000cc565b5b5062000248565b5060208310610133831016604e8410600b8410161715620002195782820a905083811115620002135762000212620000cc565b5b62000248565b62000228848484600162000108565b92509050818404811115620002425762000241620000cc565b5b81810290505b9392505050565b6000819050919050565b600060ff82169050919050565b600062000273826200024f565b9150620002808362000259565b9250620002af7fffffffffffffffffffffffffffffffffffffffffffffffffffffffffffffffff848462000163565b905092915050565b6000620002c4826200024f565b9150620002d1836200024f565b9250828202620002e1816200024f565b91508282048414831517620002fb57620002fa620000cc565b5b5092915050565b6000604051905090565b600080fd5b600080fd5b600080fd5b600080fd5b6000601f19601f8301169050919050565b7f4e487b7100000000000000000000000000000000000000000000000000000000600052604160045260246000fd5b6200036b8262000320565b810181811067ffffffffffffffff821117156200038d576200038c62000331565b5b80604052505050565b6000620003a262000302565b9050620003b0828262000360565b919050565b600067ffffffffffffffff821115620003d357620003d262000331565b5b620003de8262000320565b9050602081019050919050565b60005b838110156200040b578082015181840152602081019050620003ee565b60008484015250505050565b60006200042e6200042884620003b5565b62000396565b9050828152602081018484840111156200044d576200044c6200031b565b5b6200045a848285620003eb565b509392505050565b600082601f8301126200047a576200047962000316565b5b81516200048c84826020860162000417565b91505092915050565b60008060408385031215620004af57620004ae6200030c565b5b600083015167ffffffffffffffff811115620004d057620004cf62000311565b5b620004de8582860162000462565b925050602083015167ffffffffffffffff81111562000502576200050162000311565b5b620005108582860162000462565b9150509250929050565b600081519050919050565b7f4e487b7100000000000000000000000000000000000000000000000000000000600052602260045260246000fd5b600060028204905060018216806200056d57607f821691505b60208210810362000583576200058262000525565b5b50919050565b60008190508160005260206000209050919050565b60006020601f8301049050919050565b600082821b905092915050565b600060088302620005ed7fffffffffffffffffffffffffffffffffffffffffffffffffffffffffffffffff82620005ae565b620005f98683620005ae565b95508019841693508086168417925050509392505050565b6000819050919050565b60006200063c6200063662000630846200024f565b62000611565b6200024f565b9050919050565b6000819050919050565b62000658836200061b565b62000670620006678262000643565b848454620005bb565b825550505050565b600090565b6200068762000678565b620006948184846200064d565b505050565b5b81811015620006bc57620006b06000826200067d565b6001810190506200069a565b5050565b601f8211156200070b57620006d58162000589565b620006e0846200059e565b81016020851015620006f0578190505b62000708620006ff856200059e565b83018262000699565b50505b505050565b600082821c905092915050565b6000620007306000198460080262000710565b1980831691505092915050565b60006200074b83836200071d565b9150826002028217905092915050565b62000766826200051a565b67ffffffffffffffff81111562000782576200078162000331565b5b6200078e825462000554565b6200079b828285620006c0565b600060209050601f831160018114620007d35760008415620007be578287015190505b620007ca85826200073d565b8655506200083a565b601f198416620007e38662000589565b60005b828110156200080d57848901518255600182019150602085019450602081019050620007e6565b868310156200082d578489015162000829601f8916826200071d565b8355505b6001600288020188555050505b505050505050565b61101f80620008526000396000f3fe608060405234801561001057600080fd5b506004361061009e5760003560e01c8063579952fc11610066578063579952fc1461015d57806370a082311461018d57806395d89b41146101bd578063a9059cbb146101db578063dd62ed3e1461020b5761009e565b806306fdde03146100a3578063095ea7b3146100c157806318160ddd146100f157806323b872dd1461010f578063313ce5671461013f575b600080fd5b6100ab61023b565b6040516100b891906109f1565b60405180910390f35b6100db60048036038101906100d69190610aac565b6102c9565b6040516100e89190610b07565b60405180910390f35b6100f96102e0565b6040516101069190610b31565b60405180910390f35b61012960048036038101906101249190610b4c565b6102ea565b6040516101369190610b07565b60405180910390f35b610147610312565b6040516101549190610bbb565b60405180910390f35b61017760048036038101906101729190610b4c565b610317565b6040516101849190610b07565b60405180910390f35b6101a760048036038101906101a29190610bd6565b61032f565b6040516101b49190610b31565b60405180910390f35b6101c5610378565b6040516101d291906109f1565b60405180910390f35b6101f560048036038101906101f09190610aac565b610406565b6040516102029190610b07565b60405180910390f35b61022560048036038101906102209190610c03565b610422565b6040516102329190610b31565b60405180910390f35b6000805461024890610c72565b80601f016020809104026020016040519081016040528092919081815260200182805461027490610c72565b80156102c15780601f10610296576101008083540402835291602001916102c1565b820191906000526020600020905b8154815290600101906020018083116102a457829003601f168201915b505050505081565b60006102d63284846104a9565b6001905092915050565b6000600454905090565b6000803390506102fb858285610672565b6103068585856106fe565b60019150509392505050565b601281565b60006103248484846106fe565b600190509392505050565b6000600260008373ffffffffffffffffffffffffffffffffffffffff1673ffffffffffffffffffffffffffffffffffffffff168152602001908152602001600020549050919050565b6001805461038590610c72565b80601f01602080910402602001604051908101604052809291908181526020018280546103b190610c72565b80156103fe5780601f106103d3576101008083540402835291602001916103fe565b820191906000526020600020905b8154815290600101906020018083116103e157829003601f168201915b505050505081565b6000803390506104178185856106fe565b600191505092915050565b6000600360008473ffffffffffffffffffffffffffffffffffffffff1673ffffffffffffffffffffffffffffffffffffffff16815260200190815260200160002060008373ffffffffffffffffffffffffffffffffffffffff1673ffffffffffffffffffffffffffffffffffffffff16815260200190815260200160002054905092915050565b600073ffffffffffffffffffffffffffffffffffffffff168373ffffffffffffffffffffffffffffffffffffffff1603610518576040517f08c379a000000000000000000000000000000000000000000000000000000000815260040161050f90610d15565b60405180910390fd5b600073ffffffffffffffffffffffffffffffffffffffff168273ffffffffffffffffffffffffffffffffffffffff1603610587576040517f08c379a000000000000000000000000000000000000000000000000000000000815260040161057e90610da7565b60405180910390fd5b80600360008573ffffffffffffffffffffffffffffffffffffffff1673ffffffffffffffffffffffffffffffffffffffff16815260200190815260200160002060008473ffffffffffffffffffffffffffffffffffffffff1673ffffffffffffffffffffffffffffffffffffffff168152602001908152602001600020819055508173ffffffffffffffffffffffffffffffffffffffff168373ffffffffffffffffffffffffffffffffffffffff167f8c5be1e5ebec7d5bd14f71427d1e84f3dd0314c0f7b2291e5b200ac8c7c3b925836040516106659190610b31565b60405180910390a3505050565b600061067e8484610422565b90507fffffffffffffffffffffffffffffffffffffffffffffffffffffffffffffffff81146106f857818110156106ea576040517f08c379a00000000000000000000000000000000000000000000000000000000081526004016106e190610e13565b60405180910390fd5b6106f784848484036104a9565b5b50505050565b600073ffffffffffffffffffffffffffffffffffffffff168373ffffffffffffffffffffffffffffffffffffffff160361076d576040517f08c379a000000000000000000000000000000000000000000000000000000000815260040161076490610ea5565b60405180910390fd5b600073ffffffffffffffffffffffffffffffffffffffff168273ffffffffffffffffffffffffffffffffffffffff16036107dc576040517f08c379a00000000000000000000000000000000000000000000000000000000081526004016107d390610f37565b60405180910390fd5b6000600260008573ffffffffffffffffffffffffffffffffffffffff1673ffffffffffffffffffffffffffffffffffffffff16815260200190815260200160002054905081811015610863576040517f08c379a000000000000000000000000000000000000000000000000000000000815260040161085a90610fc9565b60405180910390fd5b818103600260008673ffffffffffffffffffffffffffffffffffffffff1673ffffffffffffffffffffffffffffffffffffffff1681526020019081526020016000208190555081600260008573ffffffffffffffffffffffffffffffffffffffff1673ffffffffffffffffffffffffffffffffffffffff168152602001908152602001600020600082825401925050819055508273ffffffffffffffffffffffffffffffffffffffff168473ffffffffffffffffffffffffffffffffffffffff167fddf252ad1be2c89b69c2b068fc378daa952ba7f163c4a11628f55a4df523b3ef846040516109539190610b31565b60405180910390a350505050565b600081519050919050565b600082825260208201905092915050565b60005b8381101561099b578082015181840152602081019050610980565b60008484015250505050565b6000601f19601f8301169050919050565b60006109c382610961565b6109cd818561096c565b93506109dd81856020860161097d565b6109e6816109a7565b840191505092915050565b60006020820190508181036000830152610a0b81846109b8565b905092915050565b600080fd5b600073ffffffffffffffffffffffffffffffffffffffff82169050919050565b6000610a4382610a18565b9050919050565b610a5381610a38565b8114610a5e57600080fd5b50565b600081359050610a7081610a4a565b92915050565b6000819050919050565b610a8981610a76565b8114610a9457600080fd5b50565b600081359050610aa681610a80565b92915050565b60008060408385031215610ac357610ac2610a13565b5b6000610ad185828601610a61565b9250506020610ae285828601610a97565b9150509250929050565b60008115159050919050565b610b0181610aec565b82525050565b6000602082019050610b1c6000830184610af8565b92915050565b610b2b81610a76565b82525050565b6000602082019050610b466000830184610b22565b92915050565b600080600060608486031215610b6557610b64610a13565b5b6000610b7386828701610a61565b9350506020610b8486828701610a61565b9250506040610b9586828701610a97565b9150509250925092565b600060ff82169050919050565b610bb581610b9f565b82525050565b6000602082019050610bd06000830184610bac565b92915050565b600060208284031215610bec57610beb610a13565b5b6000610bfa84828501610a61565b91505092915050565b60008060408385031215610c1a57610c19610a13565b5b6000610c2885828601610a61565b9250506020610c3985828601610a61565b9150509250929050565b7f4e487b7100000000000000000000000000000000000000000000000000000000600052602260045260246000fd5b60006002820490506001821680610c8a57607f821691505b602082108103610c9d57610c9c610c43565b5b50919050565b7f45524332303a20617070726f76652066726f6d20746865207a65726f2061646460008201527f7265737300000000000000000000000000000000000000000000000000000000602082015250565b6000610cff60248361096c565b9150610d0a82610ca3565b604082019050919050565b60006020820190508181036000830152610d2e81610cf2565b9050919050565b7f45524332303a20617070726f766520746f20746865207a65726f20616464726560008201527f7373000000000000000000000000000000000000000000000000000000000000602082015250565b6000610d9160228361096c565b9150610d9c82610d35565b604082019050919050565b60006020820190508181036000830152610dc081610d84565b9050919050565b7f45524332303a20696e73756666696369656e7420616c6c6f77616e6365000000600082015250565b6000610dfd601d8361096c565b9150610e0882610dc7565b602082019050919050565b60006020820190508181036000830152610e2c81610df0565b9050919050565b7f45524332303a207472616e736665722066726f6d20746865207a65726f20616460008201527f6472657373000000000000000000000000000000000000000000000000000000602082015250565b6000610e8f60258361096c565b9150610e9a82610e33565b604082019050919050565b60006020820190508181036000830152610ebe81610e82565b9050919050565b7f45524332303a207472616e7366657220746f20746865207a65726f206164647260008201527f6573730000000000000000000000000000000000000000000000000000000000602082015250565b6000610f2160238361096c565b9150610f2c82610ec5565b604082019050919050565b60006020820190508181036000830152610f5081610f14565b9050919050565b7f45524332303a207472616e7366657220616d6f756e742065786365656473206260008201527f616c616e63650000000000000000000000000000000000000000000000000000602082015250565b6000610fb360268361096c565b9150610fbe82610f57565b604082019050919050565b60006020820190508181036000830152610fe281610fa6565b905091905056fea2646970667358221220e6e5e7bb2ce55c04e861f86a2d759153e8eecce7c8882c4ea0b1cef80c3a17e364736f6c63430008120033",
  "immutableReferences": {},
  "source": "pragma solidity ^0.8.0;\r\n\r\nimport \"./BasicToken.sol\";\r\n\r\ncontract Reserve {\r\n    modifier onlyOwner() {\r\n        require(msg.sender == _owner);\r\n        _;\r\n    }\r\n    // store owner address\r\n    address private _owner;\r\n    // store token info after create\r\n    BasicToken private _token;\r\n    // store sell rate\r\n    uint private _sellRate = 1;\r\n    // store buy rate\r\n    uint private _buyRate = 1;\r\n    // store supported token name\r\n    string private _supportedToken = \"\";\r\n\r\n    constructor(\r\n        string memory name,\r\n        string memory symbol,\r\n        uint256 sellRate,\r\n        uint buyRate\r\n    ) payable {\r\n        _owner = msg.sender;\r\n        _token = new BasicToken(name, symbol);\r\n        _supportedToken = name;\r\n        _buyRate = 10 ** 18 / buyRate;\r\n        _sellRate = 10 ** 18 / sellRate;\r\n    }\r\n\r\n    // FUNCTION\r\n    // Set Rate\r\n    function setExchangeRates(\r\n        uint256 buyRate,\r\n        uint256 sellRate\r\n    ) public onlyOwner {\r\n        require(buyRate >= 0, \"Reserve: Rate must be greater than 0\");\r\n        require(sellRate >= 0, \"Reserve: Rate must be greater than 0\");\r\n        _buyRate = 10 ** 18 / buyRate;\r\n        _sellRate = 10 ** 18 / sellRate;\r\n    }\r\n\r\n    // Get buy / sell rate\r\n    function getExchangeRate(\r\n        bool isBuy,\r\n        uint256 srcAmount\r\n    ) public view returns (uint256) {\r\n        require(srcAmount > 0, \"Reserve: Amount have to be > 0\");\r\n        if (isBuy) {\r\n            return srcAmount * _buyRate ;\r\n        } else if (!isBuy) {\r\n            return srcAmount * _sellRate;\r\n        } else{\r\n            revert();\r\n        }\r\n    }\r\n\r\n    function exchange(\r\n        bool isBuy,\r\n        uint256 amount\r\n    ) public payable returns (bool) {\r\n        require(amount > 0, \"Reserve: Amount has the be greater than 0\");\r\n        if (isBuy) {\r\n            // buying\r\n            uint256 ethToBuy = getExchangeRate(isBuy, amount); // get ammount of ETH required to buy \"amount\" of token\r\n            \r\n            require(\r\n                msg.value >= ethToBuy,\r\n                \"Reserve - exchange: ETH received did not meet the required amount!\"\r\n            ); // check if the deposited ETH is enough to buy token\r\n            if (msg.value > ethToBuy) {\r\n                // refund\r\n                uint256 ethToRefund = msg.value - ethToBuy; // get refund amount\r\n                address payable addressToRefund = payable(msg.sender); // convert address to payable address\r\n                transfer(addressToRefund, ethToRefund); // refund excess ETH for user\r\n            }\r\n            return _token.transferFromTo(address(this), msg.sender, amount);\r\n        } else if (!isBuy) { // selling\r\n            require(getBalanceOf(msg.sender) >= amount, \"Reserve - exchange: Check if seller have enough tokens!\");\r\n            uint256 ethToSell = getExchangeRate(isBuy, amount);\r\n            require(getContractBalance(address(this)) > ethToSell, \"Reserve - exchange: Check if reserve have enough ETH to buy!\");\r\n            address payable sellerAddress = payable(msg.sender);\r\n            transfer(sellerAddress, ethToSell);\r\n            _token.transferFromTo(msg.sender, address(this), amount);\r\n            return true;\r\n        } else {\r\n            revert();\r\n        }\r\n    }\r\n\r\n    function deposit() public payable {}\r\n\r\n    function withdraw() public {\r\n        // get the amount of Ether stored in this contract\r\n        uint amount = address(this).balance;\r\n        // send all Ether to owner\r\n        // Owner can receive Ether since the address of owner is payable\r\n        (bool success, ) = _owner.call{value: amount}(\"\");\r\n        require(success, \"Reserve: Failed to send Ether\");\r\n    }\r\n\r\n    function transfer(address payable _to, uint _amount) public {\r\n        // Note that \"to\" is declared as payable\r\n        (bool success, ) = _to.call{value: _amount}(\"\");\r\n        require(success, \"Reserve: Failed to send Ether\");\r\n    }\r\n\r\n    receive() payable external {\r\n        \r\n    }\r\n\r\n    // FUNCTION\r\n\r\n    // GET DATA\r\n    // Get token address\r\n    function getTokenAddress() public view returns (address) {\r\n        return address(_token);\r\n    }\r\n\r\n    // Get supported token name\r\n    function getSupportedToken() public view returns (string memory) {\r\n        return _supportedToken;\r\n    }\r\n\r\n    // Get balances of user\r\n    function getBalanceOf(address account) public view returns (uint) {\r\n        return _token.balanceOf(account);\r\n    }\r\n\r\n    function getToken() public view returns (BasicToken) {\r\n        return _token;\r\n    }\r\n\r\n    function getSellRate() public view returns (uint) {\r\n        return _sellRate;\r\n    }\r\n\r\n    function getBuyRate() public view returns (uint) {\r\n        return _buyRate;\r\n    }\r\n\r\n    function getContractBalance(address) public view returns (uint) {\r\n        return address(this).balance;\r\n    }\r\n    // GET DATA\r\n\r\n    function viewAllowance(address owner, address spender) public view returns(uint){\r\n        _token.allowance(owner, spender);\r\n    }\r\n}\r\n",
  "sourcePath": "G:\\BDP-2023\\contracts\\Reserve.sol",
  "compiler": {
    "name": "solc",
    "version": "0.8.18+commit.87f61d96.Emscripten.clang"
  },
  "schemaVersion": "3.4.12",
  "updatedAt": "2023-04-26T22:44:15.949Z",
  "networkType": "ethereum",
  "devdoc": {
    "kind": "dev",
    "methods": {},
    "version": 1
  },
  "userdoc": {
    "kind": "user",
    "methods": {},
    "version": 1
  }
}